{
  "_format": "hh-sol-artifact-1",
  "contractName": "AdmodConsumer",
  "sourceName": "contracts/AdmodConsumer.sol",
  "abi": [
    {
      "inputs": [
        {
          "internalType": "address",
          "name": "_owner",
          "type": "address"
        },
        {
          "internalType": "address",
          "name": "_beneficiary",
          "type": "address"
        }
      ],
      "stateMutability": "nonpayable",
      "type": "constructor"
    },
    {
      "anonymous": false,
      "inputs": [
        {
          "indexed": true,
          "internalType": "bytes32",
          "name": "id",
          "type": "bytes32"
        }
      ],
      "name": "ChainlinkCancelled",
      "type": "event"
    },
    {
      "anonymous": false,
      "inputs": [
        {
          "indexed": true,
          "internalType": "bytes32",
          "name": "id",
          "type": "bytes32"
        }
      ],
      "name": "ChainlinkFulfilled",
      "type": "event"
    },
    {
      "anonymous": false,
      "inputs": [
        {
          "indexed": true,
          "internalType": "bytes32",
          "name": "id",
          "type": "bytes32"
        }
      ],
      "name": "ChainlinkRequested",
      "type": "event"
    },
    {
      "anonymous": false,
      "inputs": [
        {
          "indexed": true,
          "internalType": "address",
          "name": "from",
          "type": "address"
        },
        {
          "indexed": true,
          "internalType": "address",
          "name": "to",
          "type": "address"
        }
      ],
      "name": "OwnershipTransferRequested",
      "type": "event"
    },
    {
      "anonymous": false,
      "inputs": [
        {
          "indexed": true,
          "internalType": "address",
          "name": "from",
          "type": "address"
        },
        {
          "indexed": true,
          "internalType": "address",
          "name": "to",
          "type": "address"
        }
      ],
      "name": "OwnershipTransferred",
      "type": "event"
    },
    {
      "anonymous": false,
      "inputs": [
        {
          "indexed": true,
          "internalType": "bytes32",
          "name": "requestId",
          "type": "bytes32"
        },
        {
          "indexed": false,
          "internalType": "uint256",
          "name": "linkAmount",
          "type": "uint256"
        }
      ],
      "name": "RequestBoughtAmount",
      "type": "event"
    },
    {
      "anonymous": false,
      "inputs": [
        {
          "indexed": true,
          "internalType": "bytes32",
          "name": "requestId",
          "type": "bytes32"
        },
        {
          "indexed": false,
          "internalType": "uint256",
          "name": "earning",
          "type": "uint256"
        }
      ],
      "name": "RequestEarning",
      "type": "event"
    },
    {
      "inputs": [],
      "name": "acceptOwnership",
      "outputs": [],
      "stateMutability": "nonpayable",
      "type": "function"
    },
    {
      "inputs": [],
      "name": "beneficiary",
      "outputs": [
        {
          "internalType": "address",
          "name": "",
          "type": "address"
        }
      ],
      "stateMutability": "view",
      "type": "function"
    },
    {
      "inputs": [],
      "name": "earning",
      "outputs": [
        {
          "internalType": "uint256",
          "name": "",
          "type": "uint256"
        }
      ],
      "stateMutability": "view",
      "type": "function"
    },
    {
      "inputs": [
        {
          "internalType": "uint256",
          "name": "",
          "type": "uint256"
        }
      ],
      "name": "earningReports",
      "outputs": [
        {
          "internalType": "uint256",
          "name": "",
          "type": "uint256"
        }
      ],
      "stateMutability": "view",
      "type": "function"
    },
    {
      "inputs": [
        {
          "internalType": "bytes32",
          "name": "_requestId",
          "type": "bytes32"
        },
        {
          "internalType": "uint256",
          "name": "_earning",
          "type": "uint256"
        }
      ],
      "name": "fulfill",
      "outputs": [],
      "stateMutability": "nonpayable",
      "type": "function"
    },
    {
      "inputs": [
        {
          "internalType": "bytes32",
          "name": "_requestId",
          "type": "bytes32"
        },
        {
          "internalType": "uint256",
          "name": "_linkAmount",
          "type": "uint256"
        }
      ],
      "name": "fulfillTransakPrice",
      "outputs": [],
      "stateMutability": "nonpayable",
      "type": "function"
    },
    {
      "inputs": [],
      "name": "ggJobId",
      "outputs": [
        {
          "internalType": "bytes32",
          "name": "",
          "type": "bytes32"
        }
      ],
      "stateMutability": "view",
      "type": "function"
    },
    {
      "inputs": [],
      "name": "isEligible",
      "outputs": [
        {
          "internalType": "bool",
          "name": "",
          "type": "bool"
        }
      ],
      "stateMutability": "view",
      "type": "function"
    },
    {
      "inputs": [],
      "name": "linkAmount",
      "outputs": [
        {
          "internalType": "uint256",
          "name": "",
          "type": "uint256"
        }
      ],
      "stateMutability": "view",
      "type": "function"
    },
    {
      "inputs": [],
      "name": "nonce",
      "outputs": [
        {
          "internalType": "uint256",
          "name": "",
          "type": "uint256"
        }
      ],
      "stateMutability": "view",
      "type": "function"
    },
    {
      "inputs": [],
      "name": "owner",
      "outputs": [
        {
          "internalType": "address",
          "name": "",
          "type": "address"
        }
      ],
      "stateMutability": "view",
      "type": "function"
    },
    {
      "inputs": [],
      "name": "requestWeekEarning",
      "outputs": [
        {
          "internalType": "bytes32",
          "name": "requestId",
          "type": "bytes32"
        }
      ],
      "stateMutability": "nonpayable",
      "type": "function"
    },
    {
      "inputs": [],
      "name": "transakJobId",
      "outputs": [
        {
          "internalType": "bytes32",
          "name": "",
          "type": "bytes32"
        }
      ],
      "stateMutability": "view",
      "type": "function"
    },
    {
      "inputs": [
        {
          "internalType": "address",
          "name": "to",
          "type": "address"
        }
      ],
      "name": "transferOwnership",
      "outputs": [],
      "stateMutability": "nonpayable",
      "type": "function"
    },
    {
      "inputs": [],
      "name": "upkeep",
      "outputs": [
        {
          "internalType": "address",
          "name": "",
          "type": "address"
        }
      ],
      "stateMutability": "view",
      "type": "function"
    },
    {
      "inputs": [],
      "name": "withdrawLink",
      "outputs": [],
      "stateMutability": "nonpayable",
      "type": "function"
    }
  ],
  "bytecode": "0x608060405260016004553480156200001657600080fd5b5060405162001c3738038062001c378339810160408190526200003991620002cc565b818060006001600160a01b038216620000995760405162461bcd60e51b815260206004820152601860248201527f43616e6e6f7420736574206f776e657220746f207a65726f000000000000000060448201526064015b60405180910390fd5b600680546001600160a01b0319166001600160a01b0384811691909117909155811615620000cc57620000cc81620001e1565b505050620000f473326c977e6efc84e512bb9c30f76e30c160ed06fb6200028d60201b60201c565b600380546001600160a01b03191673aa37473c8d78f0f1c86c9d8aee53e8b896bcb4d51790557f6231643432636435346133613432303062316637323561363865343838383838600b557f6231643432636435346133613432303062316637323561363865343838393939600c55600a62000179670de0b6b3a7640000600162000304565b62000185919062000330565b600d55600f805460ff196001600160a01b0390931661010002929092166001600160a81b031990921691909117905550600880546001600160a01b031916733931703419fc456cd48157497166550493c9244817905562000353565b336001600160a01b038216036200023b5760405162461bcd60e51b815260206004820152601760248201527f43616e6e6f74207472616e7366657220746f2073656c66000000000000000000604482015260640162000090565b600780546001600160a01b0319166001600160a01b03838116918217909255600654604051919216907fed8889f560326eb138920d842192f0eb3dd22b4f139c87a2c57538e05bae127890600090a350565b600280546001600160a01b0319166001600160a01b0392909216919091179055565b80516001600160a01b0381168114620002c757600080fd5b919050565b60008060408385031215620002e057600080fd5b620002eb83620002af565b9150620002fb60208401620002af565b90509250929050565b80820281158282048414176200032a57634e487b7160e01b600052601160045260246000fd5b92915050565b6000826200034e57634e487b7160e01b600052601260045260246000fd5b500490565b6118d480620003636000396000f3fe608060405234801561001057600080fd5b50600436106101005760003560e01c80638da5cb5b11610097578063affed0e011610066578063affed0e0146101fb578063df78abe614610204578063ea21b0981461020d578063f2fde38b1461021657600080fd5b80638da5cb5b146101af5780638dc654a2146101c057806393232d9f146101c85780639e2f9084146101db57600080fd5b80634357855e116100d35780634357855e1461016d57806343e1ca491461018257806350ed6a951461019f57806379ba5097146101a757600080fd5b80632cf4704a14610105578063350844ce1461013557806338af3eed1461014c578063403a776114610164575b600080fd5b600854610118906001600160a01b031681565b6040516001600160a01b0390911681526020015b60405180910390f35b61013e600c5481565b60405190815260200161012c565b600f546101189061010090046001600160a01b031681565b61013e600b5481565b61018061017b366004611364565b610229565b005b600f5461018f9060ff1681565b604051901515815260200161012c565b61013e610387565b610180610486565b6006546001600160a01b0316610118565b610180610534565b6101806101d6366004611364565b610683565b61013e6101e9366004611386565b600e6020526000908152604090205481565b61013e60105481565b61013e60095481565b61013e600a5481565b61018061022436600461139f565b61074a565b60008281526005602052604090205482906001600160a01b0316331461026a5760405162461bcd60e51b8152600401610261906113cf565b60405180910390fd5b60008181526005602052604080822080546001600160a01b03191690555182917f7cc135e0cebb02c3480ae5d74d377283180a2601f8f644edf7987b009316c63a91a2827f9721e7802f825c56833db455a0081c7dd8c7da03ed285e582c2af90dd7d442c0836040516102df91815260200190565b60405180910390a2600982905560006103006002546001600160a01b031690565b600f546040516370a0823160e01b81526001600160a01b03610100909204821660048201529192508216906370a0823190602401602060405180830381865afa158015610351573d6000803e3d6000fd5b505050506040513d601f19601f820116820180604052508101906103759190611417565b60105561038061075b565b5050505050565b6008546000906001600160a01b031633146103db5760405162461bcd60e51b8152602060048201526014602482015273053656e646572206973206e6f742055706b6565760641b6044820152606401610261565b60006103f1600b5430634357855e60e01b610893565b90506104336040518060400160405280600381526020016219d95d60ea1b8152506040518060800160405280604e8152602001611822604e91398391906108b8565b610474604051806040016040528060048152602001630e0c2e8d60e31b8152506040518060600160405280602f8152602001611870602f91398391906108b8565b61048081600d546108d6565b91505090565b6007546001600160a01b031633146104d95760405162461bcd60e51b815260206004820152601660248201527526bab9ba10313290383937b837b9b2b21037bbb732b960511b6044820152606401610261565b600680546001600160a01b0319808216339081179093556007805490911690556040516001600160a01b03909116919082907f8be0079c531659141344cd1fd0a4f28419497f9722a3daafe3b4186f6b6457e090600090a350565b61053c6108f9565b60006105506002546001600160a01b031690565b600f546040516370a0823160e01b81523060048201529192506001600160a01b038084169263a9059cbb9261010090049091169083906370a0823190602401602060405180830381865afa1580156105ac573d6000803e3d6000fd5b505050506040513d601f19601f820116820180604052508101906105d09190611417565b6040516001600160e01b031960e085901b1681526001600160a01b03909216600483015260248201526044016020604051808303816000875af115801561061b573d6000803e3d6000fd5b505050506040513d601f19601f8201168201806040525081019061063f9190611430565b6106805760405162461bcd60e51b81526020600482015260126024820152712ab730b13632903a37903a3930b739b332b960711b6044820152606401610261565b50565b60008281526005602052604090205482906001600160a01b031633146106bb5760405162461bcd60e51b8152600401610261906113cf565b60008181526005602052604080822080546001600160a01b03191690555182917f7cc135e0cebb02c3480ae5d74d377283180a2601f8f644edf7987b009316c63a91a2827f2e48c207bbe18ca424eae69ca096badb69cc821f8cb72b42f49599f3390a3b1c8360405161073091815260200190565b60405180910390a2600a82905561074561094e565b505050565b6107526108f9565b61068081610a3a565b600080610772600c54306393232d9f60e01b610893565b90506000610785600954620f4240610ae4565b90506000610798600954620f4240610af0565b905060006107a583610afc565b6107ae83610afc565b6040516020016107bf929190611476565b60408051601f19818403018152828201909152600382526219d95d60ea1b602083015291506107f0908590836108b8565b61084e604051806040016040528060048152602001630e0c2e8d60e31b815250604051806040016040528060158152602001741c995cdc1bdb9cd94b18dc9e5c1d1bd05b5bdd5b9d605a1b815250866108b89092919063ffffffff16565b60408051808201909152600581526474696d657360d81b602082015261087e908590670de0b6b3a7640000610b8f565b61088a84600d546108d6565b94505050505090565b61089b611329565b6108a3611329565b6108af81868686610bad565b95945050505050565b60808301516108c79083610bf3565b60808301516107459082610bf3565b6003546000906108f0906001600160a01b03168484610c0a565b90505b92915050565b6006546001600160a01b0316331461094c5760405162461bcd60e51b815260206004820152601660248201527527b7363c9031b0b63630b1363290313c9037bbb732b960511b6044820152606401610261565b565b60006109626002546001600160a01b031690565b600f546040516370a0823160e01b81526001600160a01b03610100909204821660048201529192506000916109e6918416906370a0823190602401602060405180830381865afa1580156109ba573d6000803e3d6000fd5b505050506040513d601f19601f820116820180604052508101906109de9190611417565b601054610c9d565b9050600a548103610a2b57600954436000908152600e6020526040812091909155600f805460ff191660011790556010805491610a22836115cc565b91905055505050565b600f805460ff191690555b5050565b336001600160a01b03821603610a925760405162461bcd60e51b815260206004820152601760248201527f43616e6e6f74207472616e7366657220746f2073656c660000000000000000006044820152606401610261565b600780546001600160a01b0319166001600160a01b03838116918217909255600654604051919216907fed8889f560326eb138920d842192f0eb3dd22b4f139c87a2c57538e05bae127890600090a350565b60006108f082846115fb565b60006108f0828461160f565b60606000610b0983610ca9565b600101905060008167ffffffffffffffff811115610b2957610b29611623565b6040519080825280601f01601f191660200182016040528015610b53576020820181803683370190505b5090508181016020015b600019016f181899199a1a9b1b9c1cb0b131b232b360811b600a86061a8153600a8504945084610b5d57509392505050565b6080830151610b9e9083610bf3565b60808301516107459082610d81565b610bb5611329565b610bc58560800151610100610da7565b50508284526001600160a01b03821660208501526001600160e01b031981166040850152835b949350505050565b610c008260038351610e0c565b6107458282610f21565b600454600090610c1b816001611639565b600455835160408086015160808701515191516000936320214ca360e11b93610c539386938493923092918a91600191602401611678565b60408051601f198184030181529190526020810180516001600160e01b03166001600160e01b0319909316929092179091529050610c9386838684610f48565b9695505050505050565b60006108f08284611639565b60008072184f03e93ff9f4daa797ed6e38ed64bf6a1f0160401b8310610ce85772184f03e93ff9f4daa797ed6e38ed64bf6a1f0160401b830492506040015b6d04ee2d6d415b85acef81000000008310610d14576d04ee2d6d415b85acef8100000000830492506020015b662386f26fc100008310610d3257662386f26fc10000830492506010015b6305f5e1008310610d4a576305f5e100830492506008015b6127108310610d5e57612710830492506004015b60648310610d70576064830492506002015b600a83106108f35760010192915050565b67ffffffffffffffff811115610d9b57610a3682826110a6565b610a3682600083610e0c565b604080518082019091526060815260006020820152610dc760208361160f565b15610def57610dd760208361160f565b610de29060206116e0565b610dec9083611639565b91505b506020828101829052604080518085526000815290920101905290565b60178167ffffffffffffffff1611610e3757610e318360e0600585901b1683176110dd565b50505050565b60ff8167ffffffffffffffff1611610e7557610e5e836018611fe0600586901b16176110dd565b50610e318367ffffffffffffffff83166001611102565b61ffff8167ffffffffffffffff1611610eb457610e9d836019611fe0600586901b16176110dd565b50610e318367ffffffffffffffff83166002611102565b63ffffffff8167ffffffffffffffff1611610ef557610ede83601a611fe0600586901b16176110dd565b50610e318367ffffffffffffffff83166004611102565b610f0a83601b611fe0600586901b16176110dd565b50610e318367ffffffffffffffff83166008611102565b6040805180820190915260608152600060208201526108f083846000015151848551611128565b6040516bffffffffffffffffffffffff193060601b1660208201526034810184905260009060540160408051808303601f1901815282825280516020918201206000818152600590925291812080546001600160a01b0319166001600160a01b038a1617905590925082917fb5e6e01e79f91267dc17b4e6314d5d4d03593d2ceee0fbb452b750bd70ea5af99190a2600254604051630200057560e51b81526001600160a01b0390911690634000aea09061100b908890879087906004016116f3565b6020604051808303816000875af115801561102a573d6000803e3d6000fd5b505050506040513d601f19601f8201168201806040525081019061104e9190611430565b610beb5760405162461bcd60e51b815260206004820152602360248201527f756e61626c6520746f207472616e73666572416e6443616c6c20746f206f7261604482015262636c6560e81b6064820152608401610261565b6110b18260c26110dd565b50610a3682826040516020016110c991815260200190565b604051602081830303815290604052611212565b6040805180820190915260608152600060208201526108f0838460000151518461121f565b604080518082019091526060815260006020820152610beb84856000015151858561127a565b604080518082019091526060815260006020820152825182111561114b57600080fd5b602085015161115a8386611639565b111561118d5761118d8561117d876020015187866111789190611639565b6112fb565b61118890600261171a565b611312565b6000808651805187602083010193508088870111156111ac5787860182525b505050602084015b602084106111ec57805182526111cb602083611639565b91506111d8602082611639565b90506111e56020856116e0565b93506111b4565b51815160001960208690036101000a019081169019919091161790525083949350505050565b610c008260028351610e0c565b60408051808201909152606081526000602082015283602001518310611254576112548485602001516002611188919061171a565b8351805160208583010184815350808503611270576001810182525b5093949350505050565b604080518082019091526060815260006020820152602085015161129e8584611639565b11156112b2576112b28561117d8685611639565b600060016112c284610100611815565b6112cc91906116e0565b90508551838682010185831982511617815250805184870111156112f05783860181525b509495945050505050565b60008183111561130c5750816108f3565b50919050565b815161131e8383610da7565b50610e318382610f21565b6040805160a0810182526000808252602080830182905282840182905260608084018390528451808601909552845283015290608082015290565b6000806040838503121561137757600080fd5b50508035926020909101359150565b60006020828403121561139857600080fd5b5035919050565b6000602082840312156113b157600080fd5b81356001600160a01b03811681146113c857600080fd5b9392505050565b60208082526028908201527f536f75726365206d75737420626520746865206f7261636c65206f6620746865604082015267081c995c5d595cdd60c21b606082015260800190565b60006020828403121561142957600080fd5b5051919050565b60006020828403121561144257600080fd5b815180151581146113c857600080fd5b60005b8381101561146d578181015183820152602001611455565b50506000910152565b7f68747470733a2f2f6170692e7472616e73616b2e636f6d2f6170692f76322f6381527f757272656e636965732f70726963653f706172746e65724170694b65793d383060208201527f3235306332622d333136612d343136382d383332382d3536323939646162666560408201527f3030266669617443757272656e63793d5553442663727970746f43757272656e60608201527f63793d4c494e4b2669734275794f7253656c6c3d425559266e6574776f726b3d60808201527f657468657265756d267061796d656e744d6574686f643d6372656469745f646560a0820152736269745f636172642666696174416d6f756e743d60601b60c0820152600083516115898160d4850160208801611452565b601760f91b60d49184019182015283516115aa8160d5840160208801611452565b0160d501949350505050565b634e487b7160e01b600052601160045260246000fd5b6000600182016115de576115de6115b6565b5060010190565b634e487b7160e01b600052601260045260246000fd5b60008261160a5761160a6115e5565b500490565b60008261161e5761161e6115e5565b500690565b634e487b7160e01b600052604160045260246000fd5b808201808211156108f3576108f36115b6565b60008151808452611664816020860160208601611452565b601f01601f19169290920160200192915050565b6001600160a01b0389811682526020820189905260408201889052861660608201526001600160e01b03198516608082015260a0810184905260c0810183905261010060e082018190526000906116d18382018561164c565b9b9a5050505050505050505050565b818103818111156108f3576108f36115b6565b60018060a01b03841681528260208201526060604082015260006108af606083018461164c565b80820281158282048414176108f3576108f36115b6565b600181815b8085111561176c578160001904821115611752576117526115b6565b8085161561175f57918102915b93841c9390800290611736565b509250929050565b600082611783575060016108f3565b81611790575060006108f3565b81600181146117a657600281146117b0576117cc565b60019150506108f3565b60ff8411156117c1576117c16115b6565b50506001821b6108f3565b5060208310610133831016604e8410600b84101617156117ef575081810a6108f3565b6117f98383611731565b806000190482111561180d5761180d6115b6565b029392505050565b60006108f0838361177456fe68747470733a2f2f746573746170692e696f2f6170692f48617964656e32372f76312f6163636f756e74732f7075622d393938383737363635353434333332322f6e6574776f726b5265706f7274726f772c6d657472696356616c7565732c455354494d415445445f4541524e494e47532c6d6963726f7356616c7565a2646970667358221220ca839715b2bd3f2e0d13c5b7d27862e06f4b58d4587909428abe57534bb4458a64736f6c63430008110033",
  "linkReferences": {},
  "deployedLinkReferences": {}
}