{
  "_format": "hh-sol-artifact-1",
  "contractName": "AdmodConsumer",
  "sourceName": "contracts/AdmodConsumer.sol",
  "abi": [
    {
      "inputs": [
        {
          "internalType": "address",
          "name": "_owner",
          "type": "address"
        },
        {
          "internalType": "address",
          "name": "_beneficiary",
          "type": "address"
        }
      ],
      "stateMutability": "nonpayable",
      "type": "constructor"
    },
    {
      "anonymous": false,
      "inputs": [
        {
          "indexed": true,
          "internalType": "bytes32",
          "name": "id",
          "type": "bytes32"
        }
      ],
      "name": "ChainlinkCancelled",
      "type": "event"
    },
    {
      "anonymous": false,
      "inputs": [
        {
          "indexed": true,
          "internalType": "bytes32",
          "name": "id",
          "type": "bytes32"
        }
      ],
      "name": "ChainlinkFulfilled",
      "type": "event"
    },
    {
      "anonymous": false,
      "inputs": [
        {
          "indexed": true,
          "internalType": "bytes32",
          "name": "id",
          "type": "bytes32"
        }
      ],
      "name": "ChainlinkRequested",
      "type": "event"
    },
    {
      "anonymous": false,
      "inputs": [
        {
          "indexed": true,
          "internalType": "address",
          "name": "from",
          "type": "address"
        },
        {
          "indexed": true,
          "internalType": "address",
          "name": "to",
          "type": "address"
        }
      ],
      "name": "OwnershipTransferRequested",
      "type": "event"
    },
    {
      "anonymous": false,
      "inputs": [
        {
          "indexed": true,
          "internalType": "address",
          "name": "from",
          "type": "address"
        },
        {
          "indexed": true,
          "internalType": "address",
          "name": "to",
          "type": "address"
        }
      ],
      "name": "OwnershipTransferred",
      "type": "event"
    },
    {
      "anonymous": false,
      "inputs": [
        {
          "indexed": true,
          "internalType": "bytes32",
          "name": "requestId",
          "type": "bytes32"
        },
        {
          "indexed": false,
          "internalType": "uint256",
          "name": "linkAmount",
          "type": "uint256"
        }
      ],
      "name": "RequestBoughtAmount",
      "type": "event"
    },
    {
      "anonymous": false,
      "inputs": [
        {
          "indexed": true,
          "internalType": "bytes32",
          "name": "requestId",
          "type": "bytes32"
        },
        {
          "indexed": false,
          "internalType": "uint256",
          "name": "earning",
          "type": "uint256"
        }
      ],
      "name": "RequestEarning",
      "type": "event"
    },
    {
      "inputs": [],
      "name": "acceptOwnership",
      "outputs": [],
      "stateMutability": "nonpayable",
      "type": "function"
    },
    {
      "inputs": [],
      "name": "beneficiary",
      "outputs": [
        {
          "internalType": "address",
          "name": "",
          "type": "address"
        }
      ],
      "stateMutability": "view",
      "type": "function"
    },
    {
      "inputs": [],
      "name": "earning",
      "outputs": [
        {
          "internalType": "uint256",
          "name": "",
          "type": "uint256"
        }
      ],
      "stateMutability": "view",
      "type": "function"
    },
    {
      "inputs": [
        {
          "internalType": "uint256",
          "name": "",
          "type": "uint256"
        }
      ],
      "name": "earningReports",
      "outputs": [
        {
          "internalType": "uint256",
          "name": "",
          "type": "uint256"
        }
      ],
      "stateMutability": "view",
      "type": "function"
    },
    {
      "inputs": [
        {
          "internalType": "bytes32",
          "name": "_requestId",
          "type": "bytes32"
        },
        {
          "internalType": "uint256",
          "name": "_earning",
          "type": "uint256"
        }
      ],
      "name": "fulfill",
      "outputs": [],
      "stateMutability": "nonpayable",
      "type": "function"
    },
    {
      "inputs": [
        {
          "internalType": "bytes32",
          "name": "_requestId",
          "type": "bytes32"
        },
        {
          "internalType": "uint256",
          "name": "_linkAmount",
          "type": "uint256"
        }
      ],
      "name": "fulfillTransakPrice",
      "outputs": [],
      "stateMutability": "nonpayable",
      "type": "function"
    },
    {
      "inputs": [],
      "name": "ggJobId",
      "outputs": [
        {
          "internalType": "bytes32",
          "name": "",
          "type": "bytes32"
        }
      ],
      "stateMutability": "view",
      "type": "function"
    },
    {
      "inputs": [],
      "name": "isEligible",
      "outputs": [
        {
          "internalType": "bool",
          "name": "",
          "type": "bool"
        }
      ],
      "stateMutability": "view",
      "type": "function"
    },
    {
      "inputs": [],
      "name": "linkAmount",
      "outputs": [
        {
          "internalType": "uint256",
          "name": "",
          "type": "uint256"
        }
      ],
      "stateMutability": "view",
      "type": "function"
    },
    {
      "inputs": [],
      "name": "nonce",
      "outputs": [
        {
          "internalType": "uint256",
          "name": "",
          "type": "uint256"
        }
      ],
      "stateMutability": "view",
      "type": "function"
    },
    {
      "inputs": [],
      "name": "owner",
      "outputs": [
        {
          "internalType": "address",
          "name": "",
          "type": "address"
        }
      ],
      "stateMutability": "view",
      "type": "function"
    },
    {
      "inputs": [],
      "name": "requestWeekEarning",
      "outputs": [
        {
          "internalType": "bytes32",
          "name": "requestId",
          "type": "bytes32"
        }
      ],
      "stateMutability": "nonpayable",
      "type": "function"
    },
    {
      "inputs": [],
      "name": "transakJobId",
      "outputs": [
        {
          "internalType": "bytes32",
          "name": "",
          "type": "bytes32"
        }
      ],
      "stateMutability": "view",
      "type": "function"
    },
    {
      "inputs": [
        {
          "internalType": "address",
          "name": "to",
          "type": "address"
        }
      ],
      "name": "transferOwnership",
      "outputs": [],
      "stateMutability": "nonpayable",
      "type": "function"
    },
    {
      "inputs": [],
      "name": "upkeepRegistry",
      "outputs": [
        {
          "internalType": "address",
          "name": "",
          "type": "address"
        }
      ],
      "stateMutability": "view",
      "type": "function"
    },
    {
      "inputs": [],
      "name": "withdrawLink",
      "outputs": [],
      "stateMutability": "nonpayable",
      "type": "function"
    }
  ],
  "bytecode": "0x608060405260016004553480156200001657600080fd5b5060405162001be038038062001be08339810160408190526200003991620002cc565b818060006001600160a01b038216620000995760405162461bcd60e51b815260206004820152601860248201527f43616e6e6f7420736574206f776e657220746f207a65726f000000000000000060448201526064015b60405180910390fd5b600680546001600160a01b0319166001600160a01b0384811691909117909155811615620000cc57620000cc81620001e1565b505050620000f473326c977e6efc84e512bb9c30f76e30c160ed06fb6200028d60201b60201c565b600380546001600160a01b03191673aa37473c8d78f0f1c86c9d8aee53e8b896bcb4d51790557f6231643432636435346133613432303062316637323561363865343838383838600b557f6231643432636435346133613432303062316637323561363865343838393939600c55600a62000179670de0b6b3a7640000600162000304565b62000185919062000330565b600d55600f805460ff196001600160a01b0390931661010002929092166001600160a81b031990921691909117905550600880546001600160a01b03191673e16df59b887e3caa439e0b29b42ba2e7976fd8b217905562000353565b336001600160a01b038216036200023b5760405162461bcd60e51b815260206004820152601760248201527f43616e6e6f74207472616e7366657220746f2073656c66000000000000000000604482015260640162000090565b600780546001600160a01b0319166001600160a01b03838116918217909255600654604051919216907fed8889f560326eb138920d842192f0eb3dd22b4f139c87a2c57538e05bae127890600090a350565b600280546001600160a01b0319166001600160a01b0392909216919091179055565b80516001600160a01b0381168114620002c757600080fd5b919050565b60008060408385031215620002e057600080fd5b620002eb83620002af565b9150620002fb60208401620002af565b90509250929050565b80820281158282048414176200032a57634e487b7160e01b600052601160045260246000fd5b92915050565b6000826200034e57634e487b7160e01b600052601260045260246000fd5b500490565b61187d80620003636000396000f3fe608060405234801561001057600080fd5b50600436106101005760003560e01c80638da5cb5b11610097578063affed0e011610066578063affed0e0146101fb578063df78abe614610204578063ea21b0981461020d578063f2fde38b1461021657600080fd5b80638da5cb5b146101af5780638dc654a2146101c057806393232d9f146101c85780639e2f9084146101db57600080fd5b80634357855e116100d35780634357855e1461016d57806343e1ca491461018257806350ed6a951461019f57806379ba5097146101a757600080fd5b806301fcb53514610105578063350844ce1461013557806338af3eed1461014c578063403a776114610164575b600080fd5b600854610118906001600160a01b031681565b6040516001600160a01b0390911681526020015b60405180910390f35b61013e600c5481565b60405190815260200161012c565b600f546101189061010090046001600160a01b031681565b61013e600b5481565b61018061017b36600461130d565b610229565b005b600f5461018f9060ff1681565b604051901515815260200161012c565b61013e6102fa565b610180610435565b6006546001600160a01b0316610118565b6101806104e3565b6101806101d636600461130d565b610632565b61013e6101e936600461132f565b600e6020526000908152604090205481565b61013e60105481565b61013e60095481565b61013e600a5481565b610180610224366004611348565b6106f9565b60008281526005602052604090205482906001600160a01b0316331461026a5760405162461bcd60e51b815260040161026190611378565b60405180910390fd5b60008181526005602052604080822080546001600160a01b03191690555182917f7cc135e0cebb02c3480ae5d74d377283180a2601f8f644edf7987b009316c63a91a2827f9721e7802f825c56833db455a0081c7dd8c7da03ed285e582c2af90dd7d442c0836040516102df91815260200190565b60405180910390a260098290556102f461070a565b50505050565b600080610311600b5430634357855e60e01b610842565b90506103536040518060400160405280600381526020016219d95d60ea1b8152506040518060800160405280604e81526020016117cb604e9139839190610867565b610394604051806040016040528060048152602001630e0c2e8d60e31b8152506040518060600160405280602f8152602001611819602f9139839190610867565b60006103a86002546001600160a01b031690565b600f546040516370a0823160e01b81526001600160a01b03610100909204821660048201529192508216906370a0823190602401602060405180830381865afa1580156103f9573d6000803e3d6000fd5b505050506040513d601f19601f8201168201806040525081019061041d91906113c0565b601055600d5461042e908390610885565b9250505090565b6007546001600160a01b031633146104885760405162461bcd60e51b815260206004820152601660248201527526bab9ba10313290383937b837b9b2b21037bbb732b960511b6044820152606401610261565b600680546001600160a01b0319808216339081179093556007805490911690556040516001600160a01b03909116919082907f8be0079c531659141344cd1fd0a4f28419497f9722a3daafe3b4186f6b6457e090600090a350565b6104eb6108a8565b60006104ff6002546001600160a01b031690565b600f546040516370a0823160e01b81523060048201529192506001600160a01b038084169263a9059cbb9261010090049091169083906370a0823190602401602060405180830381865afa15801561055b573d6000803e3d6000fd5b505050506040513d601f19601f8201168201806040525081019061057f91906113c0565b6040516001600160e01b031960e085901b1681526001600160a01b03909216600483015260248201526044016020604051808303816000875af11580156105ca573d6000803e3d6000fd5b505050506040513d601f19601f820116820180604052508101906105ee91906113d9565b61062f5760405162461bcd60e51b81526020600482015260126024820152712ab730b13632903a37903a3930b739b332b960711b6044820152606401610261565b50565b60008281526005602052604090205482906001600160a01b0316331461066a5760405162461bcd60e51b815260040161026190611378565b60008181526005602052604080822080546001600160a01b03191690555182917f7cc135e0cebb02c3480ae5d74d377283180a2601f8f644edf7987b009316c63a91a2827f2e48c207bbe18ca424eae69ca096badb69cc821f8cb72b42f49599f3390a3b1c836040516106df91815260200190565b60405180910390a2600a8290556106f46108fd565b505050565b6107016108a8565b61062f816109e9565b600080610721600c54306393232d9f60e01b610842565b90506000610734600954620f4240610a93565b90506000610747600954620f4240610a9f565b9050600061075483610aab565b61075d83610aab565b60405160200161076e92919061141f565b60408051601f19818403018152828201909152600382526219d95d60ea1b6020830152915061079f90859083610867565b6107fd604051806040016040528060048152602001630e0c2e8d60e31b815250604051806040016040528060158152602001741c995cdc1bdb9cd94b18dc9e5c1d1bd05b5bdd5b9d605a1b815250866108679092919063ffffffff16565b60408051808201909152600581526474696d657360d81b602082015261082d908590670de0b6b3a7640000610b3e565b61083984600d54610885565b94505050505090565b61084a6112d2565b6108526112d2565b61085e81868686610b5c565b95945050505050565b60808301516108769083610ba2565b60808301516106f49082610ba2565b60035460009061089f906001600160a01b03168484610bb9565b90505b92915050565b6006546001600160a01b031633146108fb5760405162461bcd60e51b815260206004820152601660248201527527b7363c9031b0b63630b1363290313c9037bbb732b960511b6044820152606401610261565b565b60006109116002546001600160a01b031690565b600f546040516370a0823160e01b81526001600160a01b0361010090920482166004820152919250600091610995918416906370a0823190602401602060405180830381865afa158015610969573d6000803e3d6000fd5b505050506040513d601f19601f8201168201806040525081019061098d91906113c0565b601054610c4c565b9050600a5481036109da57600954436000908152600e6020526040812091909155600f805460ff1916600117905560108054916109d183611575565b91905055505050565b600f805460ff191690555b5050565b336001600160a01b03821603610a415760405162461bcd60e51b815260206004820152601760248201527f43616e6e6f74207472616e7366657220746f2073656c660000000000000000006044820152606401610261565b600780546001600160a01b0319166001600160a01b03838116918217909255600654604051919216907fed8889f560326eb138920d842192f0eb3dd22b4f139c87a2c57538e05bae127890600090a350565b600061089f82846115a4565b600061089f82846115b8565b60606000610ab883610c58565b600101905060008167ffffffffffffffff811115610ad857610ad86115cc565b6040519080825280601f01601f191660200182016040528015610b02576020820181803683370190505b5090508181016020015b600019016f181899199a1a9b1b9c1cb0b131b232b360811b600a86061a8153600a8504945084610b0c57509392505050565b6080830151610b4d9083610ba2565b60808301516106f49082610d30565b610b646112d2565b610b748560800151610100610d56565b50508284526001600160a01b03821660208501526001600160e01b031981166040850152835b949350505050565b610baf8260038351610dbb565b6106f48282610eca565b600454600090610bca8160016115e2565b600455835160408086015160808701515191516000936320214ca360e11b93610c029386938493923092918a91600191602401611621565b60408051601f198184030181529190526020810180516001600160e01b03166001600160e01b0319909316929092179091529050610c4286838684610ef1565b9695505050505050565b600061089f82846115e2565b60008072184f03e93ff9f4daa797ed6e38ed64bf6a1f0160401b8310610c975772184f03e93ff9f4daa797ed6e38ed64bf6a1f0160401b830492506040015b6d04ee2d6d415b85acef81000000008310610cc3576d04ee2d6d415b85acef8100000000830492506020015b662386f26fc100008310610ce157662386f26fc10000830492506010015b6305f5e1008310610cf9576305f5e100830492506008015b6127108310610d0d57612710830492506004015b60648310610d1f576064830492506002015b600a83106108a25760010192915050565b67ffffffffffffffff811115610d4a576109e5828261104f565b6109e582600083610dbb565b604080518082019091526060815260006020820152610d766020836115b8565b15610d9e57610d866020836115b8565b610d91906020611689565b610d9b90836115e2565b91505b506020828101829052604080518085526000815290920101905290565b60178167ffffffffffffffff1611610de0576102f48360e0600585901b168317611086565b60ff8167ffffffffffffffff1611610e1e57610e07836018611fe0600586901b1617611086565b506102f48367ffffffffffffffff831660016110ab565b61ffff8167ffffffffffffffff1611610e5d57610e46836019611fe0600586901b1617611086565b506102f48367ffffffffffffffff831660026110ab565b63ffffffff8167ffffffffffffffff1611610e9e57610e8783601a611fe0600586901b1617611086565b506102f48367ffffffffffffffff831660046110ab565b610eb383601b611fe0600586901b1617611086565b506102f48367ffffffffffffffff831660086110ab565b60408051808201909152606081526000602082015261089f838460000151518485516110d1565b6040516bffffffffffffffffffffffff193060601b1660208201526034810184905260009060540160408051808303601f1901815282825280516020918201206000818152600590925291812080546001600160a01b0319166001600160a01b038a1617905590925082917fb5e6e01e79f91267dc17b4e6314d5d4d03593d2ceee0fbb452b750bd70ea5af99190a2600254604051630200057560e51b81526001600160a01b0390911690634000aea090610fb49088908790879060040161169c565b6020604051808303816000875af1158015610fd3573d6000803e3d6000fd5b505050506040513d601f19601f82011682018060405250810190610ff791906113d9565b610b9a5760405162461bcd60e51b815260206004820152602360248201527f756e61626c6520746f207472616e73666572416e6443616c6c20746f206f7261604482015262636c6560e81b6064820152608401610261565b61105a8260c2611086565b506109e5828260405160200161107291815260200190565b6040516020818303038152906040526111bb565b60408051808201909152606081526000602082015261089f83846000015151846111c8565b604080518082019091526060815260006020820152610b9a848560000151518585611223565b60408051808201909152606081526000602082015282518211156110f457600080fd5b602085015161110383866115e2565b111561113657611136856111268760200151878661112191906115e2565b6112a4565b6111319060026116c3565b6112bb565b6000808651805187602083010193508088870111156111555787860182525b505050602084015b6020841061119557805182526111746020836115e2565b91506111816020826115e2565b905061118e602085611689565b935061115d565b51815160001960208690036101000a019081169019919091161790525083949350505050565b610baf8260028351610dbb565b604080518082019091526060815260006020820152836020015183106111fd576111fd848560200151600261113191906116c3565b8351805160208583010184815350808503611219576001810182525b5093949350505050565b604080518082019091526060815260006020820152602085015161124785846115e2565b111561125b5761125b8561112686856115e2565b6000600161126b846101006117be565b6112759190611689565b90508551838682010185831982511617815250805184870111156112995783860181525b509495945050505050565b6000818311156112b55750816108a2565b50919050565b81516112c78383610d56565b506102f48382610eca565b6040805160a0810182526000808252602080830182905282840182905260608084018390528451808601909552845283015290608082015290565b6000806040838503121561132057600080fd5b50508035926020909101359150565b60006020828403121561134157600080fd5b5035919050565b60006020828403121561135a57600080fd5b81356001600160a01b038116811461137157600080fd5b9392505050565b60208082526028908201527f536f75726365206d75737420626520746865206f7261636c65206f6620746865604082015267081c995c5d595cdd60c21b606082015260800190565b6000602082840312156113d257600080fd5b5051919050565b6000602082840312156113eb57600080fd5b8151801515811461137157600080fd5b60005b838110156114165781810151838201526020016113fe565b50506000910152565b7f68747470733a2f2f6170692e7472616e73616b2e636f6d2f6170692f76322f6381527f757272656e636965732f70726963653f706172746e65724170694b65793d383060208201527f3235306332622d333136612d343136382d383332382d3536323939646162666560408201527f3030266669617443757272656e63793d5553442663727970746f43757272656e60608201527f63793d4c494e4b2669734275794f7253656c6c3d425559266e6574776f726b3d60808201527f657468657265756d267061796d656e744d6574686f643d6372656469745f646560a0820152736269745f636172642666696174416d6f756e743d60601b60c0820152600083516115328160d48501602088016113fb565b601760f91b60d49184019182015283516115538160d58401602088016113fb565b0160d501949350505050565b634e487b7160e01b600052601160045260246000fd5b6000600182016115875761158761155f565b5060010190565b634e487b7160e01b600052601260045260246000fd5b6000826115b3576115b361158e565b500490565b6000826115c7576115c761158e565b500690565b634e487b7160e01b600052604160045260246000fd5b808201808211156108a2576108a261155f565b6000815180845261160d8160208601602086016113fb565b601f01601f19169290920160200192915050565b6001600160a01b0389811682526020820189905260408201889052861660608201526001600160e01b03198516608082015260a0810184905260c0810183905261010060e0820181905260009061167a838201856115f5565b9b9a5050505050505050505050565b818103818111156108a2576108a261155f565b60018060a01b038416815282602082015260606040820152600061085e60608301846115f5565b80820281158282048414176108a2576108a261155f565b600181815b808511156117155781600019048211156116fb576116fb61155f565b8085161561170857918102915b93841c93908002906116df565b509250929050565b60008261172c575060016108a2565b81611739575060006108a2565b816001811461174f576002811461175957611775565b60019150506108a2565b60ff84111561176a5761176a61155f565b50506001821b6108a2565b5060208310610133831016604e8410600b8410161715611798575081810a6108a2565b6117a283836116da565b80600019048211156117b6576117b661155f565b029392505050565b600061089f838361171d56fe68747470733a2f2f746573746170692e696f2f6170692f48617964656e32372f76312f6163636f756e74732f7075622d393938383737363635353434333332322f6e6574776f726b5265706f7274726f772c6d657472696356616c7565732c455354494d415445445f4541524e494e47532c6d6963726f7356616c7565a2646970667358221220c41bd0731539e888b14e7654a1d1ec6bbcbeb51ea9b1ec23f9a458bd414fcf4d64736f6c63430008110033",
  "linkReferences": {},
  "deployedLinkReferences": {}
}