{
  "_format": "hh-sol-artifact-1",
  "contractName": "AdmodConsumer",
  "sourceName": "contracts/AdmodConsumer.sol",
  "abi": [
    {
      "inputs": [
        {
          "internalType": "address",
          "name": "_owner",
          "type": "address"
        },
        {
          "internalType": "address",
          "name": "_beneficiary",
          "type": "address"
        }
      ],
      "stateMutability": "nonpayable",
      "type": "constructor"
    },
    {
      "anonymous": false,
      "inputs": [
        {
          "indexed": true,
          "internalType": "bytes32",
          "name": "id",
          "type": "bytes32"
        }
      ],
      "name": "ChainlinkCancelled",
      "type": "event"
    },
    {
      "anonymous": false,
      "inputs": [
        {
          "indexed": true,
          "internalType": "bytes32",
          "name": "id",
          "type": "bytes32"
        }
      ],
      "name": "ChainlinkFulfilled",
      "type": "event"
    },
    {
      "anonymous": false,
      "inputs": [
        {
          "indexed": true,
          "internalType": "bytes32",
          "name": "id",
          "type": "bytes32"
        }
      ],
      "name": "ChainlinkRequested",
      "type": "event"
    },
    {
      "anonymous": false,
      "inputs": [
        {
          "indexed": true,
          "internalType": "address",
          "name": "from",
          "type": "address"
        },
        {
          "indexed": true,
          "internalType": "address",
          "name": "to",
          "type": "address"
        }
      ],
      "name": "OwnershipTransferRequested",
      "type": "event"
    },
    {
      "anonymous": false,
      "inputs": [
        {
          "indexed": true,
          "internalType": "address",
          "name": "from",
          "type": "address"
        },
        {
          "indexed": true,
          "internalType": "address",
          "name": "to",
          "type": "address"
        }
      ],
      "name": "OwnershipTransferred",
      "type": "event"
    },
    {
      "anonymous": false,
      "inputs": [
        {
          "indexed": true,
          "internalType": "bytes32",
          "name": "requestId",
          "type": "bytes32"
        },
        {
          "indexed": false,
          "internalType": "uint256",
          "name": "earning",
          "type": "uint256"
        }
      ],
      "name": "RequestEarning",
      "type": "event"
    },
    {
      "inputs": [],
      "name": "acceptOwnership",
      "outputs": [],
      "stateMutability": "nonpayable",
      "type": "function"
    },
    {
      "inputs": [],
      "name": "beneficiary",
      "outputs": [
        {
          "internalType": "address",
          "name": "",
          "type": "address"
        }
      ],
      "stateMutability": "view",
      "type": "function"
    },
    {
      "inputs": [],
      "name": "earning",
      "outputs": [
        {
          "internalType": "uint256",
          "name": "",
          "type": "uint256"
        }
      ],
      "stateMutability": "view",
      "type": "function"
    },
    {
      "inputs": [
        {
          "internalType": "bytes32",
          "name": "_requestId",
          "type": "bytes32"
        },
        {
          "internalType": "uint256",
          "name": "_earning",
          "type": "uint256"
        }
      ],
      "name": "fulfill",
      "outputs": [],
      "stateMutability": "nonpayable",
      "type": "function"
    },
    {
      "inputs": [],
      "name": "owner",
      "outputs": [
        {
          "internalType": "address",
          "name": "",
          "type": "address"
        }
      ],
      "stateMutability": "view",
      "type": "function"
    },
    {
      "inputs": [],
      "name": "requestWeekEarning",
      "outputs": [
        {
          "internalType": "bytes32",
          "name": "requestId",
          "type": "bytes32"
        }
      ],
      "stateMutability": "nonpayable",
      "type": "function"
    },
    {
      "inputs": [
        {
          "internalType": "address",
          "name": "to",
          "type": "address"
        }
      ],
      "name": "transferOwnership",
      "outputs": [],
      "stateMutability": "nonpayable",
      "type": "function"
    },
    {
      "inputs": [],
      "name": "withdrawLink",
      "outputs": [],
      "stateMutability": "nonpayable",
      "type": "function"
    }
  ],
  "bytecode": "0x608060405260016004553480156200001657600080fd5b506040516200133538038062001335833981016040819052620000399162000276565b818060006001600160a01b038216620000995760405162461bcd60e51b815260206004820152601860248201527f43616e6e6f7420736574206f776e657220746f207a65726f000000000000000060448201526064015b60405180910390fd5b600680546001600160a01b0319166001600160a01b0384811691909117909155811615620000cc57620000cc816200018b565b505050620000f473326c977e6efc84e512bb9c30f76e30c160ed06fb6200023760201b60201c565b600380546001600160a01b03191673aa37473c8d78f0f1c86c9d8aee53e8b896bcb4d51790557f6231643432636435346133613432303062316637323561363865343838383838600955600a62000155670de0b6b3a76400006001620002ae565b620001619190620002da565b600a55600b80546001600160a01b0319166001600160a01b039290921691909117905550620002fd565b336001600160a01b03821603620001e55760405162461bcd60e51b815260206004820152601760248201527f43616e6e6f74207472616e7366657220746f2073656c66000000000000000000604482015260640162000090565b600780546001600160a01b0319166001600160a01b03838116918217909255600654604051919216907fed8889f560326eb138920d842192f0eb3dd22b4f139c87a2c57538e05bae127890600090a350565b600280546001600160a01b0319166001600160a01b0392909216919091179055565b80516001600160a01b03811681146200027157600080fd5b919050565b600080604083850312156200028a57600080fd5b620002958362000259565b9150620002a56020840162000259565b90509250929050565b8082028115828204841417620002d457634e487b7160e01b600052601160045260246000fd5b92915050565b600082620002f857634e487b7160e01b600052601260045260246000fd5b500490565b611028806200030d6000396000f3fe608060405234801561001057600080fd5b50600436106100885760003560e01c80638da5cb5b1161005b5780638da5cb5b146100f05780638dc654a214610101578063df78abe614610109578063f2fde38b1461011257600080fd5b806338af3eed1461008d5780634357855e146100bd57806350ed6a95146100d257806379ba5097146100e8575b600080fd5b600b546100a0906001600160a01b031681565b6040516001600160a01b0390911681526020015b60405180910390f35b6100d06100cb366004610cb0565b610125565b005b6100da610227565b6040519081526020016100b4565b6100d06102d3565b6006546001600160a01b03166100a0565b6100d0610381565b6100da60085481565b6100d0610120366004610cd2565b6104cc565b60008281526005602052604090205482906001600160a01b031633146101a35760405162461bcd60e51b815260206004820152602860248201527f536f75726365206d75737420626520746865206f7261636c65206f6620746865604482015267081c995c5d595cdd60c21b60648201526084015b60405180910390fd5b60008181526005602052604080822080546001600160a01b03191690555182917f7cc135e0cebb02c3480ae5d74d377283180a2601f8f644edf7987b009316c63a91a2827f9721e7802f825c56833db455a0081c7dd8c7da03ed285e582c2af90dd7d442c08360405161021891815260200190565b60405180910390a25060085550565b60008061023e60095430634357855e60e01b6104dd565b90506102806040518060400160405280600381526020016219d95d60ea1b8152506040518060800160405280604c8152602001610f78604c9139839190610502565b6102c1604051806040016040528060048152602001630e0c2e8d60e31b8152506040518060600160405280602f8152602001610fc4602f9139839190610502565b6102cd81600a54610525565b91505090565b6007546001600160a01b031633146103265760405162461bcd60e51b815260206004820152601660248201527526bab9ba10313290383937b837b9b2b21037bbb732b960511b604482015260640161019a565b600680546001600160a01b0319808216339081179093556007805490911690556040516001600160a01b03909116919082907f8be0079c531659141344cd1fd0a4f28419497f9722a3daafe3b4186f6b6457e090600090a350565b610389610548565b600061039d6002546001600160a01b031690565b600b546040516370a0823160e01b81523060048201529192506001600160a01b038084169263a9059cbb92919091169083906370a0823190602401602060405180830381865afa1580156103f5573d6000803e3d6000fd5b505050506040513d601f19601f820116820180604052508101906104199190610d02565b6040516001600160e01b031960e085901b1681526001600160a01b03909216600483015260248201526044016020604051808303816000875af1158015610464573d6000803e3d6000fd5b505050506040513d601f19601f820116820180604052508101906104889190610d1b565b6104c95760405162461bcd60e51b81526020600482015260126024820152712ab730b13632903a37903a3930b739b332b960711b604482015260640161019a565b50565b6104d4610548565b6104c98161059d565b6104e5610c75565b6104ed610c75565b6104f981868686610647565b95945050505050565b6080830151610511908361068d565b6080830151610520908261068d565b505050565b60035460009061053f906001600160a01b031684846106a4565b90505b92915050565b6006546001600160a01b0316331461059b5760405162461bcd60e51b815260206004820152601660248201527527b7363c9031b0b63630b1363290313c9037bbb732b960511b604482015260640161019a565b565b336001600160a01b038216036105f55760405162461bcd60e51b815260206004820152601760248201527f43616e6e6f74207472616e7366657220746f2073656c66000000000000000000604482015260640161019a565b600780546001600160a01b0319166001600160a01b03838116918217909255600654604051919216907fed8889f560326eb138920d842192f0eb3dd22b4f139c87a2c57538e05bae127890600090a350565b61064f610c75565b61065f8560800151610100610737565b50508284526001600160a01b03821660208501526001600160e01b031981166040850152835b949350505050565b61069a826003835161079c565b61052082826108b1565b6004546000906106b5816001610d53565b600455835160408086015160808701515191516000936320214ca360e11b936106ed9386938493923092918a91600191602401610dac565b60408051601f198184030181529190526020810180516001600160e01b03166001600160e01b031990931692909217909152905061072d868386846108d8565b9695505050505050565b604080518082019091526060815260006020820152610757602083610e14565b1561077f57610767602083610e14565b610772906020610e36565b61077c9083610d53565b91505b506020828101829052604080518085526000815290920101905290565b60178167ffffffffffffffff16116107c7576107c18360e0600585901b168317610a36565b50505050565b60ff8167ffffffffffffffff1611610805576107ee836018611fe0600586901b1617610a36565b506107c18367ffffffffffffffff83166001610a5b565b61ffff8167ffffffffffffffff16116108445761082d836019611fe0600586901b1617610a36565b506107c18367ffffffffffffffff83166002610a5b565b63ffffffff8167ffffffffffffffff16116108855761086e83601a611fe0600586901b1617610a36565b506107c18367ffffffffffffffff83166004610a5b565b61089a83601b611fe0600586901b1617610a36565b506107c18367ffffffffffffffff83166008610a5b565b60408051808201909152606081526000602082015261053f83846000015151848551610a81565b6040516bffffffffffffffffffffffff193060601b1660208201526034810184905260009060540160408051808303601f1901815282825280516020918201206000818152600590925291812080546001600160a01b0319166001600160a01b038a1617905590925082917fb5e6e01e79f91267dc17b4e6314d5d4d03593d2ceee0fbb452b750bd70ea5af99190a2600254604051630200057560e51b81526001600160a01b0390911690634000aea09061099b90889087908790600401610e49565b6020604051808303816000875af11580156109ba573d6000803e3d6000fd5b505050506040513d601f19601f820116820180604052508101906109de9190610d1b565b6106855760405162461bcd60e51b815260206004820152602360248201527f756e61626c6520746f207472616e73666572416e6443616c6c20746f206f7261604482015262636c6560e81b606482015260840161019a565b60408051808201909152606081526000602082015261053f8384600001515184610b6b565b604080518082019091526060815260006020820152610685848560000151518585610bc6565b6040805180820190915260608152600060208201528251821115610aa457600080fd5b6020850151610ab38386610d53565b1115610ae657610ae685610ad687602001518786610ad19190610d53565b610c47565b610ae1906002610e70565b610c5e565b600080865180518760208301019350808887011115610b055787860182525b505050602084015b60208410610b455780518252610b24602083610d53565b9150610b31602082610d53565b9050610b3e602085610e36565b9350610b0d565b51815160001960208690036101000a019081169019919091161790525083949350505050565b60408051808201909152606081526000602082015283602001518310610ba057610ba08485602001516002610ae19190610e70565b8351805160208583010184815350808503610bbc576001810182525b5093949350505050565b6040805180820190915260608152600060208201526020850151610bea8584610d53565b1115610bfe57610bfe85610ad68685610d53565b60006001610c0e84610100610f6b565b610c189190610e36565b9050855183868201018583198251161781525080518487011115610c3c5783860181525b509495945050505050565b600081831115610c58575081610542565b50919050565b8151610c6a8383610737565b506107c183826108b1565b6040805160a0810182526000808252602080830182905282840182905260608084018390528451808601909552845283015290608082015290565b60008060408385031215610cc357600080fd5b50508035926020909101359150565b600060208284031215610ce457600080fd5b81356001600160a01b0381168114610cfb57600080fd5b9392505050565b600060208284031215610d1457600080fd5b5051919050565b600060208284031215610d2d57600080fd5b81518015158114610cfb57600080fd5b634e487b7160e01b600052601160045260246000fd5b8082018082111561054257610542610d3d565b6000815180845260005b81811015610d8c57602081850181015186830182015201610d70565b506000602082860101526020601f19601f83011685010191505092915050565b6001600160a01b0389811682526020820189905260408201889052861660608201526001600160e01b03198516608082015260a0810184905260c0810183905261010060e08201819052600090610e0583820185610d66565b9b9a5050505050505050505050565b600082610e3157634e487b7160e01b600052601260045260246000fd5b500690565b8181038181111561054257610542610d3d565b60018060a01b03841681528260208201526060604082015260006104f96060830184610d66565b808202811582820484141761054257610542610d3d565b600181815b80851115610ec2578160001904821115610ea857610ea8610d3d565b80851615610eb557918102915b93841c9390800290610e8c565b509250929050565b600082610ed957506001610542565b81610ee657506000610542565b8160018114610efc5760028114610f0657610f22565b6001915050610542565b60ff841115610f1757610f17610d3d565b50506001821b610542565b5060208310610133831016604e8410600b8410161715610f45575081810a610542565b610f4f8383610e87565b8060001904821115610f6357610f63610d3d565b029392505050565b600061053f8383610eca56fe68747470733a2f2f746573746170692e696f2f6170692f48617964656e2f76312f6163636f756e74732f7075622d393938383737363635353434333332322f6e6574776f726b5265706f7274726f772c6d657472696356616c7565732c455354494d415445445f4541524e494e47532c6d6963726f7356616c7565a2646970667358221220a3440c4d48dbf505db52796c147907ce3a7151a8aaf08cb7456bc83a86c3b9d964736f6c63430008110033",
  "linkReferences": {},
  "deployedLinkReferences": {}
}