{
  "_format": "hh-sol-artifact-1",
  "contractName": "AdmodConsumer",
  "sourceName": "contracts/AdmodConsumer.sol",
  "abi": [
    {
      "inputs": [
        {
          "internalType": "address",
          "name": "_owner",
          "type": "address"
        },
        {
          "internalType": "address",
          "name": "_beneficiary",
          "type": "address"
        }
      ],
      "stateMutability": "nonpayable",
      "type": "constructor"
    },
    {
      "anonymous": false,
      "inputs": [
        {
          "indexed": true,
          "internalType": "bytes32",
          "name": "id",
          "type": "bytes32"
        }
      ],
      "name": "ChainlinkCancelled",
      "type": "event"
    },
    {
      "anonymous": false,
      "inputs": [
        {
          "indexed": true,
          "internalType": "bytes32",
          "name": "id",
          "type": "bytes32"
        }
      ],
      "name": "ChainlinkFulfilled",
      "type": "event"
    },
    {
      "anonymous": false,
      "inputs": [
        {
          "indexed": true,
          "internalType": "bytes32",
          "name": "id",
          "type": "bytes32"
        }
      ],
      "name": "ChainlinkRequested",
      "type": "event"
    },
    {
      "anonymous": false,
      "inputs": [
        {
          "indexed": true,
          "internalType": "address",
          "name": "from",
          "type": "address"
        },
        {
          "indexed": true,
          "internalType": "address",
          "name": "to",
          "type": "address"
        }
      ],
      "name": "OwnershipTransferRequested",
      "type": "event"
    },
    {
      "anonymous": false,
      "inputs": [
        {
          "indexed": true,
          "internalType": "address",
          "name": "from",
          "type": "address"
        },
        {
          "indexed": true,
          "internalType": "address",
          "name": "to",
          "type": "address"
        }
      ],
      "name": "OwnershipTransferred",
      "type": "event"
    },
    {
      "anonymous": false,
      "inputs": [
        {
          "indexed": true,
          "internalType": "bytes32",
          "name": "requestId",
          "type": "bytes32"
        },
        {
          "indexed": false,
          "internalType": "uint256",
          "name": "linkAmount",
          "type": "uint256"
        }
      ],
      "name": "RequestBoughtAmount",
      "type": "event"
    },
    {
      "anonymous": false,
      "inputs": [
        {
          "indexed": true,
          "internalType": "bytes32",
          "name": "requestId",
          "type": "bytes32"
        },
        {
          "indexed": false,
          "internalType": "uint256",
          "name": "earning",
          "type": "uint256"
        }
      ],
      "name": "RequestEarning",
      "type": "event"
    },
    {
      "inputs": [],
      "name": "acceptOwnership",
      "outputs": [],
      "stateMutability": "nonpayable",
      "type": "function"
    },
    {
      "inputs": [],
      "name": "beneficiary",
      "outputs": [
        {
          "internalType": "address",
          "name": "",
          "type": "address"
        }
      ],
      "stateMutability": "view",
      "type": "function"
    },
    {
      "inputs": [],
      "name": "earning",
      "outputs": [
        {
          "internalType": "uint256",
          "name": "",
          "type": "uint256"
        }
      ],
      "stateMutability": "view",
      "type": "function"
    },
    {
      "inputs": [
        {
          "internalType": "uint256",
          "name": "",
          "type": "uint256"
        }
      ],
      "name": "earningReports",
      "outputs": [
        {
          "internalType": "uint256",
          "name": "",
          "type": "uint256"
        }
      ],
      "stateMutability": "view",
      "type": "function"
    },
    {
      "inputs": [
        {
          "internalType": "bytes32",
          "name": "_requestId",
          "type": "bytes32"
        },
        {
          "internalType": "uint256",
          "name": "_earning",
          "type": "uint256"
        }
      ],
      "name": "fulfill",
      "outputs": [],
      "stateMutability": "nonpayable",
      "type": "function"
    },
    {
      "inputs": [
        {
          "internalType": "bytes32",
          "name": "_requestId",
          "type": "bytes32"
        },
        {
          "internalType": "uint256",
          "name": "_linkAmount",
          "type": "uint256"
        }
      ],
      "name": "fulfillTransakPrice",
      "outputs": [],
      "stateMutability": "nonpayable",
      "type": "function"
    },
    {
      "inputs": [],
      "name": "ggJobId",
      "outputs": [
        {
          "internalType": "bytes32",
          "name": "",
          "type": "bytes32"
        }
      ],
      "stateMutability": "view",
      "type": "function"
    },
    {
      "inputs": [],
      "name": "isEligible",
      "outputs": [
        {
          "internalType": "bool",
          "name": "",
          "type": "bool"
        }
      ],
      "stateMutability": "view",
      "type": "function"
    },
    {
      "inputs": [],
      "name": "linkAmount",
      "outputs": [
        {
          "internalType": "uint256",
          "name": "",
          "type": "uint256"
        }
      ],
      "stateMutability": "view",
      "type": "function"
    },
    {
      "inputs": [],
      "name": "owner",
      "outputs": [
        {
          "internalType": "address",
          "name": "",
          "type": "address"
        }
      ],
      "stateMutability": "view",
      "type": "function"
    },
    {
      "inputs": [],
      "name": "requestWeekEarning",
      "outputs": [
        {
          "internalType": "bytes32",
          "name": "requestId",
          "type": "bytes32"
        }
      ],
      "stateMutability": "nonpayable",
      "type": "function"
    },
    {
      "inputs": [],
      "name": "transakJobId",
      "outputs": [
        {
          "internalType": "bytes32",
          "name": "",
          "type": "bytes32"
        }
      ],
      "stateMutability": "view",
      "type": "function"
    },
    {
      "inputs": [
        {
          "internalType": "address",
          "name": "to",
          "type": "address"
        }
      ],
      "name": "transferOwnership",
      "outputs": [],
      "stateMutability": "nonpayable",
      "type": "function"
    },
    {
      "inputs": [],
      "name": "withdrawLink",
      "outputs": [],
      "stateMutability": "nonpayable",
      "type": "function"
    }
  ],
  "bytecode": "0x608060405260016004553480156200001657600080fd5b5060405162001ab638038062001ab68339810160408190526200003991620002a5565b818060006001600160a01b038216620000995760405162461bcd60e51b815260206004820152601860248201527f43616e6e6f7420736574206f776e657220746f207a65726f000000000000000060448201526064015b60405180910390fd5b600680546001600160a01b0319166001600160a01b0384811691909117909155811615620000cc57620000cc81620001ba565b505050620000f473326c977e6efc84e512bb9c30f76e30c160ed06fb6200026660201b60201c565b600380546001600160a01b03191673aa37473c8d78f0f1c86c9d8aee53e8b896bcb4d51790557f6231643432636435346133613432303062316637323561363865343838383838600a9081557f6231643432636435346133613432303062316637323561363865343838393939600b5562000179670de0b6b3a76400006001620002dd565b62000185919062000309565b600c55600e80546001600160a81b0319166101006001600160a01b03939093169290920260ff1916919091179055506200032c565b336001600160a01b03821603620002145760405162461bcd60e51b815260206004820152601760248201527f43616e6e6f74207472616e7366657220746f2073656c66000000000000000000604482015260640162000090565b600780546001600160a01b0319166001600160a01b03838116918217909255600654604051919216907fed8889f560326eb138920d842192f0eb3dd22b4f139c87a2c57538e05bae127890600090a350565b600280546001600160a01b0319166001600160a01b0392909216919091179055565b80516001600160a01b0381168114620002a057600080fd5b919050565b60008060408385031215620002b957600080fd5b620002c48362000288565b9150620002d46020840162000288565b90509250929050565b80820281158282048414176200030357634e487b7160e01b600052601160045260246000fd5b92915050565b6000826200032757634e487b7160e01b600052601260045260246000fd5b500490565b61177a806200033c6000396000f3fe608060405234801561001057600080fd5b50600436106100ea5760003560e01c80638da5cb5b1161008c5780639e2f9084116100665780639e2f9084146101b2578063df78abe6146101d2578063ea21b098146101db578063f2fde38b146101e457600080fd5b80638da5cb5b146101865780638dc654a21461019757806393232d9f1461019f57600080fd5b80634357855e116100c85780634357855e1461014457806343e1ca491461015957806350ed6a951461017657806379ba50971461017e57600080fd5b8063350844ce146100ef57806338af3eed1461010b578063403a77611461013b575b600080fd5b6100f8600b5481565b6040519081526020015b60405180910390f35b600e546101239061010090046001600160a01b031681565b6040516001600160a01b039091168152602001610102565b6100f8600a5481565b61015761015236600461121c565b6101f7565b005b600e546101669060ff1681565b6040519015158152602001610102565b6100f86102c8565b610157610374565b6006546001600160a01b0316610123565b610157610422565b6101576101ad36600461121c565b610571565b6100f86101c036600461123e565b600d6020526000908152604090205481565b6100f860085481565b6100f860095481565b6101576101f2366004611257565b610638565b60008281526005602052604090205482906001600160a01b031633146102385760405162461bcd60e51b815260040161022f90611287565b60405180910390fd5b60008181526005602052604080822080546001600160a01b03191690555182917f7cc135e0cebb02c3480ae5d74d377283180a2601f8f644edf7987b009316c63a91a2827f9721e7802f825c56833db455a0081c7dd8c7da03ed285e582c2af90dd7d442c0836040516102ad91815260200190565b60405180910390a260088290556102c2610649565b50505050565b6000806102df600a5430634357855e60e01b610781565b90506103216040518060400160405280600381526020016219d95d60ea1b8152506040518060800160405280604c81526020016116ca604c91398391906107a6565b610362604051806040016040528060048152602001630e0c2e8d60e31b8152506040518060600160405280602f8152602001611716602f91398391906107a6565b61036e81600c546107c4565b91505090565b6007546001600160a01b031633146103c75760405162461bcd60e51b815260206004820152601660248201527526bab9ba10313290383937b837b9b2b21037bbb732b960511b604482015260640161022f565b600680546001600160a01b0319808216339081179093556007805490911690556040516001600160a01b03909116919082907f8be0079c531659141344cd1fd0a4f28419497f9722a3daafe3b4186f6b6457e090600090a350565b61042a6107e7565b600061043e6002546001600160a01b031690565b600e546040516370a0823160e01b81523060048201529192506001600160a01b038084169263a9059cbb9261010090049091169083906370a0823190602401602060405180830381865afa15801561049a573d6000803e3d6000fd5b505050506040513d601f19601f820116820180604052508101906104be91906112cf565b6040516001600160e01b031960e085901b1681526001600160a01b03909216600483015260248201526044016020604051808303816000875af1158015610509573d6000803e3d6000fd5b505050506040513d601f19601f8201168201806040525081019061052d91906112e8565b61056e5760405162461bcd60e51b81526020600482015260126024820152712ab730b13632903a37903a3930b739b332b960711b604482015260640161022f565b50565b60008281526005602052604090205482906001600160a01b031633146105a95760405162461bcd60e51b815260040161022f90611287565b60008181526005602052604080822080546001600160a01b03191690555182917f7cc135e0cebb02c3480ae5d74d377283180a2601f8f644edf7987b009316c63a91a2827f2e48c207bbe18ca424eae69ca096badb69cc821f8cb72b42f49599f3390a3b1c8360405161061e91815260200190565b60405180910390a2600982905561063361083c565b505050565b6106406107e7565b61056e81610900565b600080610660600b54306393232d9f60e01b610781565b90506000610673600854620f42406109aa565b90506000610686600854620f42406109b6565b90506000610693836109c2565b61069c836109c2565b6040516020016106ad92919061132e565b60408051601f19818403018152828201909152600382526219d95d60ea1b602083015291506106de908590836107a6565b61073c604051806040016040528060048152602001630e0c2e8d60e31b815250604051806040016040528060158152602001741c995cdc1bdb9cd94b18dc9e5c1d1bd05b5bdd5b9d605a1b815250866107a69092919063ffffffff16565b60408051808201909152600581526474696d657360d81b602082015261076c908590670de0b6b3a7640000610a55565b61077884600c546107c4565b94505050505090565b6107896111e1565b6107916111e1565b61079d81868686610a73565b95945050505050565b60808301516107b59083610ab9565b60808301516106339082610ab9565b6003546000906107de906001600160a01b03168484610ad0565b90505b92915050565b6006546001600160a01b0316331461083a5760405162461bcd60e51b815260206004820152601660248201527527b7363c9031b0b63630b1363290313c9037bbb732b960511b604482015260640161022f565b565b60006108506002546001600160a01b031690565b600954600e546040516370a0823160e01b81526101009091046001600160a01b03908116600483015292935090918316906370a0823190602401602060405180830381865afa1580156108a7573d6000803e3d6000fd5b505050506040513d601f19601f820116820180604052508101906108cb91906112cf565b036108f357600854436000908152600d6020526040902055600e805460ff1916600117905550565b600e805460ff1916905550565b336001600160a01b038216036109585760405162461bcd60e51b815260206004820152601760248201527f43616e6e6f74207472616e7366657220746f2073656c66000000000000000000604482015260640161022f565b600780546001600160a01b0319166001600160a01b03838116918217909255600654604051919216907fed8889f560326eb138920d842192f0eb3dd22b4f139c87a2c57538e05bae127890600090a350565b60006107de82846114a3565b60006107de82846114b7565b606060006109cf83610b63565b600101905060008167ffffffffffffffff8111156109ef576109ef6114cb565b6040519080825280601f01601f191660200182016040528015610a19576020820181803683370190505b5090508181016020015b600019016f181899199a1a9b1b9c1cb0b131b232b360811b600a86061a8153600a8504945084610a2357509392505050565b6080830151610a649083610ab9565b60808301516106339082610c3b565b610a7b6111e1565b610a8b8560800151610100610c65565b50508284526001600160a01b03821660208501526001600160e01b031981166040850152835b949350505050565b610ac68260038351610cca565b6106338282610dd9565b600454600090610ae18160016114e1565b600455835160408086015160808701515191516000936320214ca360e11b93610b199386938493923092918a91600191602401611520565b60408051601f198184030181529190526020810180516001600160e01b03166001600160e01b0319909316929092179091529050610b5986838684610e00565b9695505050505050565b60008072184f03e93ff9f4daa797ed6e38ed64bf6a1f0160401b8310610ba25772184f03e93ff9f4daa797ed6e38ed64bf6a1f0160401b830492506040015b6d04ee2d6d415b85acef81000000008310610bce576d04ee2d6d415b85acef8100000000830492506020015b662386f26fc100008310610bec57662386f26fc10000830492506010015b6305f5e1008310610c04576305f5e100830492506008015b6127108310610c1857612710830492506004015b60648310610c2a576064830492506002015b600a83106107e15760010192915050565b67ffffffffffffffff811115610c5957610c558282610f5e565b5050565b610c5582600083610cca565b604080518082019091526060815260006020820152610c856020836114b7565b15610cad57610c956020836114b7565b610ca0906020611588565b610caa90836114e1565b91505b506020828101829052604080518085526000815290920101905290565b60178167ffffffffffffffff1611610cef576102c28360e0600585901b168317610f95565b60ff8167ffffffffffffffff1611610d2d57610d16836018611fe0600586901b1617610f95565b506102c28367ffffffffffffffff83166001610fba565b61ffff8167ffffffffffffffff1611610d6c57610d55836019611fe0600586901b1617610f95565b506102c28367ffffffffffffffff83166002610fba565b63ffffffff8167ffffffffffffffff1611610dad57610d9683601a611fe0600586901b1617610f95565b506102c28367ffffffffffffffff83166004610fba565b610dc283601b611fe0600586901b1617610f95565b506102c28367ffffffffffffffff83166008610fba565b6040805180820190915260608152600060208201526107de83846000015151848551610fe0565b6040516bffffffffffffffffffffffff193060601b1660208201526034810184905260009060540160408051808303601f1901815282825280516020918201206000818152600590925291812080546001600160a01b0319166001600160a01b038a1617905590925082917fb5e6e01e79f91267dc17b4e6314d5d4d03593d2ceee0fbb452b750bd70ea5af99190a2600254604051630200057560e51b81526001600160a01b0390911690634000aea090610ec39088908790879060040161159b565b6020604051808303816000875af1158015610ee2573d6000803e3d6000fd5b505050506040513d601f19601f82011682018060405250810190610f0691906112e8565b610ab15760405162461bcd60e51b815260206004820152602360248201527f756e61626c6520746f207472616e73666572416e6443616c6c20746f206f7261604482015262636c6560e81b606482015260840161022f565b610f698260c2610f95565b50610c558282604051602001610f8191815260200190565b6040516020818303038152906040526110ca565b6040805180820190915260608152600060208201526107de83846000015151846110d7565b604080518082019091526060815260006020820152610ab1848560000151518585611132565b604080518082019091526060815260006020820152825182111561100357600080fd5b602085015161101283866114e1565b111561104557611045856110358760200151878661103091906114e1565b6111b3565b6110409060026115c2565b6111ca565b6000808651805187602083010193508088870111156110645787860182525b505050602084015b602084106110a457805182526110836020836114e1565b91506110906020826114e1565b905061109d602085611588565b935061106c565b51815160001960208690036101000a019081169019919091161790525083949350505050565b610ac68260028351610cca565b6040805180820190915260608152600060208201528360200151831061110c5761110c848560200151600261104091906115c2565b8351805160208583010184815350808503611128576001810182525b5093949350505050565b604080518082019091526060815260006020820152602085015161115685846114e1565b111561116a5761116a8561103586856114e1565b6000600161117a846101006116bd565b6111849190611588565b90508551838682010185831982511617815250805184870111156111a85783860181525b509495945050505050565b6000818311156111c45750816107e1565b50919050565b81516111d68383610c65565b506102c28382610dd9565b6040805160a0810182526000808252602080830182905282840182905260608084018390528451808601909552845283015290608082015290565b6000806040838503121561122f57600080fd5b50508035926020909101359150565b60006020828403121561125057600080fd5b5035919050565b60006020828403121561126957600080fd5b81356001600160a01b038116811461128057600080fd5b9392505050565b60208082526028908201527f536f75726365206d75737420626520746865206f7261636c65206f6620746865604082015267081c995c5d595cdd60c21b606082015260800190565b6000602082840312156112e157600080fd5b5051919050565b6000602082840312156112fa57600080fd5b8151801515811461128057600080fd5b60005b8381101561132557818101518382015260200161130d565b50506000910152565b7f68747470733a2f2f6170692d7374672e7472616e73616b2e636f6d2f6170692f81527f76322f63757272656e636965732f70726963653f706172746e65724170694b6560208201527f793d30363235323566302d383536622d343330322d396434382d38623639306260408201527f623565363334266669617443757272656e63793d5553442663727970746f437560608201527f7272656e63793d4554482669734275794f7253656c6c3d425559266e6574776f60808201527f726b3d657468657265756d267061796d656e744d6574686f643d63726564697460a08201527f5f64656269745f636172642666696174416d6f756e743d00000000000000000060c08201526000835161144a8160d785016020880161130a565b601760f91b60d791840191820152835161146b8160d884016020880161130a565b0160d801949350505050565b634e487b7160e01b600052601260045260246000fd5b634e487b7160e01b600052601160045260246000fd5b6000826114b2576114b2611477565b500490565b6000826114c6576114c6611477565b500690565b634e487b7160e01b600052604160045260246000fd5b808201808211156107e1576107e161148d565b6000815180845261150c81602086016020860161130a565b601f01601f19169290920160200192915050565b6001600160a01b0389811682526020820189905260408201889052861660608201526001600160e01b03198516608082015260a0810184905260c0810183905261010060e08201819052600090611579838201856114f4565b9b9a5050505050505050505050565b818103818111156107e1576107e161148d565b60018060a01b038416815282602082015260606040820152600061079d60608301846114f4565b80820281158282048414176107e1576107e161148d565b600181815b808511156116145781600019048211156115fa576115fa61148d565b8085161561160757918102915b93841c93908002906115de565b509250929050565b60008261162b575060016107e1565b81611638575060006107e1565b816001811461164e576002811461165857611674565b60019150506107e1565b60ff8411156116695761166961148d565b50506001821b6107e1565b5060208310610133831016604e8410600b8410161715611697575081810a6107e1565b6116a183836115d9565b80600019048211156116b5576116b561148d565b029392505050565b60006107de838361161c56fe68747470733a2f2f746573746170692e696f2f6170692f48617964656e2f76312f6163636f756e74732f7075622d393938383737363635353434333332322f6e6574776f726b5265706f7274726f772c6d657472696356616c7565732c455354494d415445445f4541524e494e47532c6d6963726f7356616c7565a2646970667358221220229cc24227ac35cd69ee2057cfd931d5c4b6ae5b5699709a5f88b5e4ae541d9364736f6c63430008110033",
  "linkReferences": {},
  "deployedLinkReferences": {}
}