{
  "_format": "hh-sol-artifact-1",
  "contractName": "AdmodConsumer",
  "sourceName": "contracts/AdmodConsumer.sol",
  "abi": [
    {
      "inputs": [],
      "stateMutability": "nonpayable",
      "type": "constructor"
    },
    {
      "anonymous": false,
      "inputs": [
        {
          "indexed": true,
          "internalType": "bytes32",
          "name": "id",
          "type": "bytes32"
        }
      ],
      "name": "ChainlinkCancelled",
      "type": "event"
    },
    {
      "anonymous": false,
      "inputs": [
        {
          "indexed": true,
          "internalType": "bytes32",
          "name": "id",
          "type": "bytes32"
        }
      ],
      "name": "ChainlinkFulfilled",
      "type": "event"
    },
    {
      "anonymous": false,
      "inputs": [
        {
          "indexed": true,
          "internalType": "bytes32",
          "name": "id",
          "type": "bytes32"
        }
      ],
      "name": "ChainlinkRequested",
      "type": "event"
    },
    {
      "anonymous": false,
      "inputs": [
        {
          "indexed": true,
          "internalType": "address",
          "name": "from",
          "type": "address"
        },
        {
          "indexed": true,
          "internalType": "address",
          "name": "to",
          "type": "address"
        }
      ],
      "name": "OwnershipTransferRequested",
      "type": "event"
    },
    {
      "anonymous": false,
      "inputs": [
        {
          "indexed": true,
          "internalType": "address",
          "name": "from",
          "type": "address"
        },
        {
          "indexed": true,
          "internalType": "address",
          "name": "to",
          "type": "address"
        }
      ],
      "name": "OwnershipTransferred",
      "type": "event"
    },
    {
      "anonymous": false,
      "inputs": [
        {
          "indexed": true,
          "internalType": "bytes32",
          "name": "requestId",
          "type": "bytes32"
        },
        {
          "indexed": false,
          "internalType": "uint256",
          "name": "earning",
          "type": "uint256"
        }
      ],
      "name": "RequestEarning",
      "type": "event"
    },
    {
      "inputs": [],
      "name": "acceptOwnership",
      "outputs": [],
      "stateMutability": "nonpayable",
      "type": "function"
    },
    {
      "inputs": [],
      "name": "earning",
      "outputs": [
        {
          "internalType": "uint256",
          "name": "",
          "type": "uint256"
        }
      ],
      "stateMutability": "view",
      "type": "function"
    },
    {
      "inputs": [
        {
          "internalType": "bytes32",
          "name": "_requestId",
          "type": "bytes32"
        },
        {
          "internalType": "uint256",
          "name": "_earning",
          "type": "uint256"
        }
      ],
      "name": "fulfill",
      "outputs": [],
      "stateMutability": "nonpayable",
      "type": "function"
    },
    {
      "inputs": [],
      "name": "owner",
      "outputs": [
        {
          "internalType": "address",
          "name": "",
          "type": "address"
        }
      ],
      "stateMutability": "view",
      "type": "function"
    },
    {
      "inputs": [],
      "name": "requestVolumeData",
      "outputs": [
        {
          "internalType": "bytes32",
          "name": "requestId",
          "type": "bytes32"
        }
      ],
      "stateMutability": "nonpayable",
      "type": "function"
    },
    {
      "inputs": [
        {
          "internalType": "address",
          "name": "to",
          "type": "address"
        }
      ],
      "name": "transferOwnership",
      "outputs": [],
      "stateMutability": "nonpayable",
      "type": "function"
    },
    {
      "inputs": [],
      "name": "withdrawLink",
      "outputs": [],
      "stateMutability": "nonpayable",
      "type": "function"
    }
  ],
  "bytecode": "0x608060405260016004553480156200001657600080fd5b50338060008073ffffffffffffffffffffffffffffffffffffffff168273ffffffffffffffffffffffffffffffffffffffff16036200008c576040517f08c379a00000000000000000000000000000000000000000000000000000000081526004016200008390620003d3565b60405180910390fd5b81600660006101000a81548173ffffffffffffffffffffffffffffffffffffffff021916908373ffffffffffffffffffffffffffffffffffffffff160217905550600073ffffffffffffffffffffffffffffffffffffffff168173ffffffffffffffffffffffffffffffffffffffff161462000114576200011381620001b960201b60201c565b5b5050506200013c73779877a7b0d9e8603169ddbd7836e478b4624789620002ea60201b60201c565b62000161736090149792daaee9d1d568c9f9a6f6b46aa29efd6200032e60201b60201c565b7f6361393833363663633733313439353762386330313263373266303561656562600981905550600a670de0b6b3a76400006001620001a191906200042e565b620001ad9190620004a8565b600a8190555062000552565b3373ffffffffffffffffffffffffffffffffffffffff168173ffffffffffffffffffffffffffffffffffffffff16036200022a576040517f08c379a0000000000000000000000000000000000000000000000000000000008152600401620002219062000530565b60405180910390fd5b80600760006101000a81548173ffffffffffffffffffffffffffffffffffffffff021916908373ffffffffffffffffffffffffffffffffffffffff1602179055508073ffffffffffffffffffffffffffffffffffffffff16600660009054906101000a900473ffffffffffffffffffffffffffffffffffffffff1673ffffffffffffffffffffffffffffffffffffffff167fed8889f560326eb138920d842192f0eb3dd22b4f139c87a2c57538e05bae127860405160405180910390a350565b80600260006101000a81548173ffffffffffffffffffffffffffffffffffffffff021916908373ffffffffffffffffffffffffffffffffffffffff16021790555050565b80600360006101000a81548173ffffffffffffffffffffffffffffffffffffffff021916908373ffffffffffffffffffffffffffffffffffffffff16021790555050565b600082825260208201905092915050565b7f43616e6e6f7420736574206f776e657220746f207a65726f0000000000000000600082015250565b6000620003bb60188362000372565b9150620003c88262000383565b602082019050919050565b60006020820190508181036000830152620003ee81620003ac565b9050919050565b6000819050919050565b7f4e487b7100000000000000000000000000000000000000000000000000000000600052601160045260246000fd5b60006200043b82620003f5565b91506200044883620003f5565b92508282026200045881620003f5565b91508282048414831517620004725762000471620003ff565b5b5092915050565b7f4e487b7100000000000000000000000000000000000000000000000000000000600052601260045260246000fd5b6000620004b582620003f5565b9150620004c283620003f5565b925082620004d557620004d462000479565b5b828204905092915050565b7f43616e6e6f74207472616e7366657220746f2073656c66000000000000000000600082015250565b60006200051860178362000372565b91506200052582620004e0565b602082019050919050565b600060208201905081810360008301526200054b8162000509565b9050919050565b611c6580620005626000396000f3fe608060405234801561001057600080fd5b506004361061007d5760003560e01c80638da5cb5b1161005b5780638da5cb5b146100c65780638dc654a2146100e4578063df78abe6146100ee578063f2fde38b1461010c5761007d565b80634357855e146100825780636021abac1461009e57806379ba5097146100bc575b600080fd5b61009c600480360381019061009791906111be565b610128565b005b6100a6610271565b6040516100b3919061120d565b60405180910390f35b6100c461037d565b005b6100ce610514565b6040516100db9190611269565b60405180910390f35b6100ec61053e565b005b6100f661068b565b6040516101039190611293565b60405180910390f35b610126600480360381019061012191906112da565b610691565b005b816005600082815260200190815260200160002060009054906101000a900473ffffffffffffffffffffffffffffffffffffffff1673ffffffffffffffffffffffffffffffffffffffff163373ffffffffffffffffffffffffffffffffffffffff16146101ca576040517f08c379a00000000000000000000000000000000000000000000000000000000081526004016101c19061138a565b60405180910390fd5b6005600082815260200190815260200160002060006101000a81549073ffffffffffffffffffffffffffffffffffffffff0219169055807f7cc135e0cebb02c3480ae5d74d377283180a2601f8f644edf7987b009316c63a60405160405180910390a2827f9721e7802f825c56833db455a0081c7dd8c7da03ed285e582c2af90dd7d442c08360405161025d9190611293565b60405180910390a281600881905550505050565b60008061028860095430634357855e60e01b6106a5565b90506102ec6040518060400160405280600381526020017f6765740000000000000000000000000000000000000000000000000000000000815250604051806080016040528060498152602001611be760499139836106d69092919063ffffffff16565b61036b6040518060400160405280600481526020017f70617468000000000000000000000000000000000000000000000000000000008152506040518060400160405280601881526020017f5241572c4554482c5553442c564f4c554d453234484f55520000000000000000815250836106d69092919063ffffffff16565b61037781600a54610709565b91505090565b600760009054906101000a900473ffffffffffffffffffffffffffffffffffffffff1673ffffffffffffffffffffffffffffffffffffffff163373ffffffffffffffffffffffffffffffffffffffff161461040d576040517f08c379a0000000000000000000000000000000000000000000000000000000008152600401610404906113f6565b60405180910390fd5b6000600660009054906101000a900473ffffffffffffffffffffffffffffffffffffffff16905033600660006101000a81548173ffffffffffffffffffffffffffffffffffffffff021916908373ffffffffffffffffffffffffffffffffffffffff1602179055506000600760006101000a81548173ffffffffffffffffffffffffffffffffffffffff021916908373ffffffffffffffffffffffffffffffffffffffff1602179055503373ffffffffffffffffffffffffffffffffffffffff168173ffffffffffffffffffffffffffffffffffffffff167f8be0079c531659141344cd1fd0a4f28419497f9722a3daafe3b4186f6b6457e060405160405180910390a350565b6000600660009054906101000a900473ffffffffffffffffffffffffffffffffffffffff16905090565b610546610740565b60006105506107d2565b90508073ffffffffffffffffffffffffffffffffffffffff1663a9059cbb338373ffffffffffffffffffffffffffffffffffffffff166370a08231306040518263ffffffff1660e01b81526004016105a89190611269565b602060405180830381865afa1580156105c5573d6000803e3d6000fd5b505050506040513d601f19601f820116820180604052508101906105e9919061142b565b6040518363ffffffff1660e01b8152600401610606929190611458565b6020604051808303816000875af1158015610625573d6000803e3d6000fd5b505050506040513d601f19601f8201168201806040525081019061064991906114b9565b610688576040517f08c379a000000000000000000000000000000000000000000000000000000000815260040161067f90611532565b60405180910390fd5b50565b60085481565b610699610740565b6106a2816107fc565b50565b6106ad6110c6565b6106b56110c6565b6106cc8585858461092a909392919063ffffffff16565b9150509392505050565b6106ed8284608001516109da90919063ffffffff16565b6107048184608001516109da90919063ffffffff16565b505050565b6000610738600360009054906101000a900473ffffffffffffffffffffffffffffffffffffffff1684846109ff565b905092915050565b600660009054906101000a900473ffffffffffffffffffffffffffffffffffffffff1673ffffffffffffffffffffffffffffffffffffffff163373ffffffffffffffffffffffffffffffffffffffff16146107d0576040517f08c379a00000000000000000000000000000000000000000000000000000000081526004016107c79061159e565b60405180910390fd5b565b6000600260009054906101000a900473ffffffffffffffffffffffffffffffffffffffff16905090565b3373ffffffffffffffffffffffffffffffffffffffff168173ffffffffffffffffffffffffffffffffffffffff160361086a576040517f08c379a00000000000000000000000000000000000000000000000000000000081526004016108619061160a565b60405180910390fd5b80600760006101000a81548173ffffffffffffffffffffffffffffffffffffffff021916908373ffffffffffffffffffffffffffffffffffffffff1602179055508073ffffffffffffffffffffffffffffffffffffffff16600660009054906101000a900473ffffffffffffffffffffffffffffffffffffffff1673ffffffffffffffffffffffffffffffffffffffff167fed8889f560326eb138920d842192f0eb3dd22b4f139c87a2c57538e05bae127860405160405180910390a350565b6109326110c6565b6109428560800151610100610acb565b508385600001818152505082856020019073ffffffffffffffffffffffffffffffffffffffff16908173ffffffffffffffffffffffffffffffffffffffff16815250508185604001907bffffffffffffffffffffffffffffffffffffffffffffffffffffffff191690817bffffffffffffffffffffffffffffffffffffffffffffffffffffffff191681525050849050949350505050565b6109e78260038351610b35565b6109fa8183610cba90919063ffffffff16565b505050565b6000806004549050600181610a149190611659565b6004819055506000634042994660e01b60008087600001513089604001518760018c6080015160000151604051602401610a55989796959493929190611758565b604051602081830303815290604052907bffffffffffffffffffffffffffffffffffffffffffffffffffffffff19166020820180517bffffffffffffffffffffffffffffffffffffffffffffffffffffffff83818316178352505050509050610ac086838684610cdc565b925050509392505050565b610ad3611133565b6000602083610ae2919061180c565b14610b0e57602082610af4919061180c565b6020610b00919061183d565b82610b0b9190611659565b91505b81836020018181525050604051808452600081528281016020016040525082905092915050565b60178167ffffffffffffffff1611610b6c57610b668160058460ff16901b60ff161784610e7190919063ffffffff16565b50610cb5565b60ff8167ffffffffffffffff1611610bc257610b9b601860058460ff16901b1784610e7190919063ffffffff16565b50610bbc8167ffffffffffffffff16600185610e919092919063ffffffff16565b50610cb4565b61ffff8167ffffffffffffffff1611610c1957610bf2601960058460ff16901b1784610e7190919063ffffffff16565b50610c138167ffffffffffffffff16600285610e919092919063ffffffff16565b50610cb3565b63ffffffff8167ffffffffffffffff1611610c7257610c4b601a60058460ff16901b1784610e7190919063ffffffff16565b50610c6c8167ffffffffffffffff16600485610e919092919063ffffffff16565b50610cb2565b610c8f601b60058460ff16901b1784610e7190919063ffffffff16565b50610cb08167ffffffffffffffff16600885610e919092919063ffffffff16565b505b5b5b5b505050565b610cc2611133565b610cd483846000015151848551610eb3565b905092915050565b60003084604051602001610cf192919061192a565b604051602081830303815290604052805190602001209050846005600083815260200190815260200160002060006101000a81548173ffffffffffffffffffffffffffffffffffffffff021916908373ffffffffffffffffffffffffffffffffffffffff160217905550807fb5e6e01e79f91267dc17b4e6314d5d4d03593d2ceee0fbb452b750bd70ea5af960405160405180910390a2600260009054906101000a900473ffffffffffffffffffffffffffffffffffffffff1673ffffffffffffffffffffffffffffffffffffffff16634000aea08685856040518463ffffffff1660e01b8152600401610de793929190611956565b6020604051808303816000875af1158015610e06573d6000803e3d6000fd5b505050506040513d601f19601f82011682018060405250810190610e2a91906114b9565b610e69576040517f08c379a0000000000000000000000000000000000000000000000000000000008152600401610e6090611a06565b60405180910390fd5b949350505050565b610e79611133565b610e898384600001515184610fa2565b905092915050565b610e99611133565b610eaa848560000151518585610ff8565b90509392505050565b610ebb611133565b8251821115610ec957600080fd5b84602001518285610eda9190611659565b1115610f0f57610f0e856002610eff88602001518887610efa9190611659565b611086565b610f099190611a26565b6110a2565b5b600080865180518760208301019350808887011115610f2e5787860182525b60208701925050505b60208410610f755780518252602082610f509190611659565b9150602081610f5f9190611659565b9050602084610f6e919061183d565b9350610f37565b60006001856020036101000a03905080198251168184511681811785525050508692505050949350505050565b610faa611133565b83602001518310610fd057610fcf8460028660200151610fca9190611a26565b6110a2565b5b83518051602085830101848153818603610feb576001820183525b5050508390509392505050565b611000611133565b846020015184836110119190611659565b11156110395761103885600286856110299190611659565b6110339190611a26565b6110a2565b5b600060018361010061104b9190611b9b565b611055919061183d565b905085518386820101858319825116178152815185880111156110785784870182525b505085915050949350505050565b6000818311156110985782905061109c565b8190505b92915050565b6000826000015190506110b58383610acb565b506110c08382610cba565b50505050565b6040518060a0016040528060008019168152602001600073ffffffffffffffffffffffffffffffffffffffff16815260200160007bffffffffffffffffffffffffffffffffffffffffffffffffffffffff191681526020016000815260200161112d611133565b81525090565b604051806040016040528060608152602001600081525090565b600080fd5b6000819050919050565b61116581611152565b811461117057600080fd5b50565b6000813590506111828161115c565b92915050565b6000819050919050565b61119b81611188565b81146111a657600080fd5b50565b6000813590506111b881611192565b92915050565b600080604083850312156111d5576111d461114d565b5b60006111e385828601611173565b92505060206111f4858286016111a9565b9150509250929050565b61120781611152565b82525050565b600060208201905061122260008301846111fe565b92915050565b600073ffffffffffffffffffffffffffffffffffffffff82169050919050565b600061125382611228565b9050919050565b61126381611248565b82525050565b600060208201905061127e600083018461125a565b92915050565b61128d81611188565b82525050565b60006020820190506112a86000830184611284565b92915050565b6112b781611248565b81146112c257600080fd5b50565b6000813590506112d4816112ae565b92915050565b6000602082840312156112f0576112ef61114d565b5b60006112fe848285016112c5565b91505092915050565b600082825260208201905092915050565b7f536f75726365206d75737420626520746865206f7261636c65206f662074686560008201527f2072657175657374000000000000000000000000000000000000000000000000602082015250565b6000611374602883611307565b915061137f82611318565b604082019050919050565b600060208201905081810360008301526113a381611367565b9050919050565b7f4d7573742062652070726f706f736564206f776e657200000000000000000000600082015250565b60006113e0601683611307565b91506113eb826113aa565b602082019050919050565b6000602082019050818103600083015261140f816113d3565b9050919050565b60008151905061142581611192565b92915050565b6000602082840312156114415761144061114d565b5b600061144f84828501611416565b91505092915050565b600060408201905061146d600083018561125a565b61147a6020830184611284565b9392505050565b60008115159050919050565b61149681611481565b81146114a157600080fd5b50565b6000815190506114b38161148d565b92915050565b6000602082840312156114cf576114ce61114d565b5b60006114dd848285016114a4565b91505092915050565b7f556e61626c6520746f207472616e736665720000000000000000000000000000600082015250565b600061151c601283611307565b9150611527826114e6565b602082019050919050565b6000602082019050818103600083015261154b8161150f565b9050919050565b7f4f6e6c792063616c6c61626c65206279206f776e657200000000000000000000600082015250565b6000611588601683611307565b915061159382611552565b602082019050919050565b600060208201905081810360008301526115b78161157b565b9050919050565b7f43616e6e6f74207472616e7366657220746f2073656c66000000000000000000600082015250565b60006115f4601783611307565b91506115ff826115be565b602082019050919050565b60006020820190508181036000830152611623816115e7565b9050919050565b7f4e487b7100000000000000000000000000000000000000000000000000000000600052601160045260246000fd5b600061166482611188565b915061166f83611188565b92508282019050808211156116875761168661162a565b5b92915050565b60007fffffffff0000000000000000000000000000000000000000000000000000000082169050919050565b6116c28161168d565b82525050565b600081519050919050565b600082825260208201905092915050565b60005b838110156117025780820151818401526020810190506116e7565b60008484015250505050565b6000601f19601f8301169050919050565b600061172a826116c8565b61173481856116d3565b93506117448185602086016116e4565b61174d8161170e565b840191505092915050565b60006101008201905061176e600083018b61125a565b61177b602083018a611284565b61178860408301896111fe565b611795606083018861125a565b6117a260808301876116b9565b6117af60a0830186611284565b6117bc60c0830185611284565b81810360e08301526117ce818461171f565b90509998505050505050505050565b7f4e487b7100000000000000000000000000000000000000000000000000000000600052601260045260246000fd5b600061181782611188565b915061182283611188565b925082611832576118316117dd565b5b828206905092915050565b600061184882611188565b915061185383611188565b925082820390508181111561186b5761186a61162a565b5b92915050565b6000819050919050565b600061189661189161188c84611228565b611871565b611228565b9050919050565b60006118a88261187b565b9050919050565b60006118ba8261189d565b9050919050565b60008160601b9050919050565b60006118d9826118c1565b9050919050565b60006118eb826118ce565b9050919050565b6119036118fe826118af565b6118e0565b82525050565b6000819050919050565b61192461191f82611188565b611909565b82525050565b600061193682856118f2565b6014820191506119468284611913565b6020820191508190509392505050565b600060608201905061196b600083018661125a565b6119786020830185611284565b818103604083015261198a818461171f565b9050949350505050565b7f756e61626c6520746f207472616e73666572416e6443616c6c20746f206f726160008201527f636c650000000000000000000000000000000000000000000000000000000000602082015250565b60006119f0602383611307565b91506119fb82611994565b604082019050919050565b60006020820190508181036000830152611a1f816119e3565b9050919050565b6000611a3182611188565b9150611a3c83611188565b9250828202611a4a81611188565b91508282048414831517611a6157611a6061162a565b5b5092915050565b60008160011c9050919050565b6000808291508390505b6001851115611abf57808604811115611a9b57611a9a61162a565b5b6001851615611aaa5780820291505b8081029050611ab885611a68565b9450611a7f565b94509492505050565b600082611ad85760019050611b94565b81611ae65760009050611b94565b8160018114611afc5760028114611b0657611b35565b6001915050611b94565b60ff841115611b1857611b1761162a565b5b8360020a915084821115611b2f57611b2e61162a565b5b50611b94565b5060208310610133831016604e8410600b8410161715611b6a5782820a905083811115611b6557611b6461162a565b5b611b94565b611b778484846001611a75565b92509050818404811115611b8e57611b8d61162a565b5b81810290505b9392505050565b6000611ba682611188565b9150611bb183611188565b9250611bde7fffffffffffffffffffffffffffffffffffffffffffffffffffffffffffffffff8484611ac8565b90509291505056fe68747470733a2f2f6d696e2d6170692e63727970746f636f6d706172652e636f6d2f646174612f70726963656d756c746966756c6c3f6673796d733d455448267473796d733d555344a26469706673582212209090ee3c3c1627278effde0bc0154ffa4a4655dc9b355c32c39c47e2ceb9baba64736f6c63430008120033",
  "linkReferences": {},
  "deployedLinkReferences": {}
}