{
  "_format": "hh-sol-artifact-1",
  "contractName": "AdmodConsumer",
  "sourceName": "contracts/AdmodConsumer.sol",
  "abi": [
    {
      "inputs": [
        {
          "internalType": "address",
          "name": "_owner",
          "type": "address"
        },
        {
          "internalType": "address",
          "name": "_beneficiary",
          "type": "address"
        }
      ],
      "stateMutability": "nonpayable",
      "type": "constructor"
    },
    {
      "anonymous": false,
      "inputs": [
        {
          "indexed": true,
          "internalType": "bytes32",
          "name": "id",
          "type": "bytes32"
        }
      ],
      "name": "ChainlinkCancelled",
      "type": "event"
    },
    {
      "anonymous": false,
      "inputs": [
        {
          "indexed": true,
          "internalType": "bytes32",
          "name": "id",
          "type": "bytes32"
        }
      ],
      "name": "ChainlinkFulfilled",
      "type": "event"
    },
    {
      "anonymous": false,
      "inputs": [
        {
          "indexed": true,
          "internalType": "bytes32",
          "name": "id",
          "type": "bytes32"
        }
      ],
      "name": "ChainlinkRequested",
      "type": "event"
    },
    {
      "anonymous": false,
      "inputs": [
        {
          "indexed": true,
          "internalType": "address",
          "name": "from",
          "type": "address"
        },
        {
          "indexed": true,
          "internalType": "address",
          "name": "to",
          "type": "address"
        }
      ],
      "name": "OwnershipTransferRequested",
      "type": "event"
    },
    {
      "anonymous": false,
      "inputs": [
        {
          "indexed": true,
          "internalType": "address",
          "name": "from",
          "type": "address"
        },
        {
          "indexed": true,
          "internalType": "address",
          "name": "to",
          "type": "address"
        }
      ],
      "name": "OwnershipTransferred",
      "type": "event"
    },
    {
      "anonymous": false,
      "inputs": [
        {
          "indexed": true,
          "internalType": "bytes32",
          "name": "requestId",
          "type": "bytes32"
        },
        {
          "indexed": false,
          "internalType": "uint256",
          "name": "linkAmount",
          "type": "uint256"
        }
      ],
      "name": "RequestBoughtAmount",
      "type": "event"
    },
    {
      "anonymous": false,
      "inputs": [
        {
          "indexed": true,
          "internalType": "bytes32",
          "name": "requestId",
          "type": "bytes32"
        },
        {
          "indexed": false,
          "internalType": "uint256",
          "name": "earning",
          "type": "uint256"
        }
      ],
      "name": "RequestEarning",
      "type": "event"
    },
    {
      "inputs": [],
      "name": "acceptOwnership",
      "outputs": [],
      "stateMutability": "nonpayable",
      "type": "function"
    },
    {
      "inputs": [],
      "name": "beneficiary",
      "outputs": [
        {
          "internalType": "address",
          "name": "",
          "type": "address"
        }
      ],
      "stateMutability": "view",
      "type": "function"
    },
    {
      "inputs": [],
      "name": "earning",
      "outputs": [
        {
          "internalType": "uint256",
          "name": "",
          "type": "uint256"
        }
      ],
      "stateMutability": "view",
      "type": "function"
    },
    {
      "inputs": [
        {
          "internalType": "uint256",
          "name": "",
          "type": "uint256"
        }
      ],
      "name": "earningReports",
      "outputs": [
        {
          "internalType": "uint256",
          "name": "",
          "type": "uint256"
        }
      ],
      "stateMutability": "view",
      "type": "function"
    },
    {
      "inputs": [
        {
          "internalType": "bytes32",
          "name": "_requestId",
          "type": "bytes32"
        },
        {
          "internalType": "uint256",
          "name": "_earning",
          "type": "uint256"
        }
      ],
      "name": "fulfill",
      "outputs": [],
      "stateMutability": "nonpayable",
      "type": "function"
    },
    {
      "inputs": [
        {
          "internalType": "bytes32",
          "name": "_requestId",
          "type": "bytes32"
        },
        {
          "internalType": "uint256",
          "name": "_linkAmount",
          "type": "uint256"
        }
      ],
      "name": "fulfillTransakPrice",
      "outputs": [],
      "stateMutability": "nonpayable",
      "type": "function"
    },
    {
      "inputs": [],
      "name": "ggJobId",
      "outputs": [
        {
          "internalType": "bytes32",
          "name": "",
          "type": "bytes32"
        }
      ],
      "stateMutability": "view",
      "type": "function"
    },
    {
      "inputs": [],
      "name": "isEligible",
      "outputs": [
        {
          "internalType": "bool",
          "name": "",
          "type": "bool"
        }
      ],
      "stateMutability": "view",
      "type": "function"
    },
    {
      "inputs": [],
      "name": "linkAmount",
      "outputs": [
        {
          "internalType": "uint256",
          "name": "",
          "type": "uint256"
        }
      ],
      "stateMutability": "view",
      "type": "function"
    },
    {
      "inputs": [],
      "name": "nonce",
      "outputs": [
        {
          "internalType": "uint256",
          "name": "",
          "type": "uint256"
        }
      ],
      "stateMutability": "view",
      "type": "function"
    },
    {
      "inputs": [],
      "name": "owner",
      "outputs": [
        {
          "internalType": "address",
          "name": "",
          "type": "address"
        }
      ],
      "stateMutability": "view",
      "type": "function"
    },
    {
      "inputs": [],
      "name": "requestWeekEarning",
      "outputs": [
        {
          "internalType": "bytes32",
          "name": "requestId",
          "type": "bytes32"
        }
      ],
      "stateMutability": "nonpayable",
      "type": "function"
    },
    {
      "inputs": [],
      "name": "transakJobId",
      "outputs": [
        {
          "internalType": "bytes32",
          "name": "",
          "type": "bytes32"
        }
      ],
      "stateMutability": "view",
      "type": "function"
    },
    {
      "inputs": [
        {
          "internalType": "address",
          "name": "to",
          "type": "address"
        }
      ],
      "name": "transferOwnership",
      "outputs": [],
      "stateMutability": "nonpayable",
      "type": "function"
    },
    {
      "inputs": [],
      "name": "upkeepRegistry",
      "outputs": [
        {
          "internalType": "address",
          "name": "",
          "type": "address"
        }
      ],
      "stateMutability": "view",
      "type": "function"
    },
    {
      "inputs": [],
      "name": "withdrawLink",
      "outputs": [],
      "stateMutability": "nonpayable",
      "type": "function"
    }
  ],
  "bytecode": "0x608060405260016004553480156200001657600080fd5b5060405162001c3238038062001c328339810160408190526200003991620002cc565b818060006001600160a01b038216620000995760405162461bcd60e51b815260206004820152601860248201527f43616e6e6f7420736574206f776e657220746f207a65726f000000000000000060448201526064015b60405180910390fd5b600680546001600160a01b0319166001600160a01b0384811691909117909155811615620000cc57620000cc81620001e1565b505050620000f473326c977e6efc84e512bb9c30f76e30c160ed06fb6200028d60201b60201c565b600380546001600160a01b03191673aa37473c8d78f0f1c86c9d8aee53e8b896bcb4d51790557f6231643432636435346133613432303062316637323561363865343838383838600b557f6231643432636435346133613432303062316637323561363865343838393939600c55600a62000179670de0b6b3a7640000600162000304565b62000185919062000330565b600d55600f805460ff196001600160a01b0390931661010002929092166001600160a81b031990921691909117905550600880546001600160a01b03191673e16df59b887e3caa439e0b29b42ba2e7976fd8b217905562000353565b336001600160a01b038216036200023b5760405162461bcd60e51b815260206004820152601760248201527f43616e6e6f74207472616e7366657220746f2073656c66000000000000000000604482015260640162000090565b600780546001600160a01b0319166001600160a01b03838116918217909255600654604051919216907fed8889f560326eb138920d842192f0eb3dd22b4f139c87a2c57538e05bae127890600090a350565b600280546001600160a01b0319166001600160a01b0392909216919091179055565b80516001600160a01b0381168114620002c757600080fd5b919050565b60008060408385031215620002e057600080fd5b620002eb83620002af565b9150620002fb60208401620002af565b90509250929050565b80820281158282048414176200032a57634e487b7160e01b600052601160045260246000fd5b92915050565b6000826200034e57634e487b7160e01b600052601260045260246000fd5b500490565b6118cf80620003636000396000f3fe608060405234801561001057600080fd5b50600436106101005760003560e01c80638da5cb5b11610097578063affed0e011610066578063affed0e0146101fb578063df78abe614610204578063ea21b0981461020d578063f2fde38b1461021657600080fd5b80638da5cb5b146101af5780638dc654a2146101c057806393232d9f146101c85780639e2f9084146101db57600080fd5b80634357855e116100d35780634357855e1461016d57806343e1ca491461018257806350ed6a951461019f57806379ba5097146101a757600080fd5b806301fcb53514610105578063350844ce1461013557806338af3eed1461014c578063403a776114610164575b600080fd5b600854610118906001600160a01b031681565b6040516001600160a01b0390911681526020015b60405180910390f35b61013e600c5481565b60405190815260200161012c565b600f546101189061010090046001600160a01b031681565b61013e600b5481565b61018061017b36600461135f565b610229565b005b600f5461018f9060ff1681565b604051901515815260200161012c565b61013e6102fa565b610180610487565b6006546001600160a01b0316610118565b610180610535565b6101806101d636600461135f565b610684565b61013e6101e9366004611381565b600e6020526000908152604090205481565b61013e60105481565b61013e60095481565b61013e600a5481565b61018061022436600461139a565b61074b565b60008281526005602052604090205482906001600160a01b0316331461026a5760405162461bcd60e51b8152600401610261906113ca565b60405180910390fd5b60008181526005602052604080822080546001600160a01b03191690555182917f7cc135e0cebb02c3480ae5d74d377283180a2601f8f644edf7987b009316c63a91a2827f9721e7802f825c56833db455a0081c7dd8c7da03ed285e582c2af90dd7d442c0836040516102df91815260200190565b60405180910390a260098290556102f461075c565b50505050565b6008546000906001600160a01b0316331461034d5760405162461bcd60e51b81526020600482015260136024820152726e6f742055706b65657020526567697374727960681b6044820152606401610261565b6000610363600b5430634357855e60e01b610894565b90506103a56040518060400160405280600381526020016219d95d60ea1b8152506040518060800160405280604e815260200161181d604e91398391906108b9565b6103e6604051806040016040528060048152602001630e0c2e8d60e31b8152506040518060600160405280602f815260200161186b602f91398391906108b9565b60006103fa6002546001600160a01b031690565b600f546040516370a0823160e01b81526001600160a01b03610100909204821660048201529192508216906370a0823190602401602060405180830381865afa15801561044b573d6000803e3d6000fd5b505050506040513d601f19601f8201168201806040525081019061046f9190611412565b601055600d546104809083906108d7565b9250505090565b6007546001600160a01b031633146104da5760405162461bcd60e51b815260206004820152601660248201527526bab9ba10313290383937b837b9b2b21037bbb732b960511b6044820152606401610261565b600680546001600160a01b0319808216339081179093556007805490911690556040516001600160a01b03909116919082907f8be0079c531659141344cd1fd0a4f28419497f9722a3daafe3b4186f6b6457e090600090a350565b61053d6108fa565b60006105516002546001600160a01b031690565b600f546040516370a0823160e01b81523060048201529192506001600160a01b038084169263a9059cbb9261010090049091169083906370a0823190602401602060405180830381865afa1580156105ad573d6000803e3d6000fd5b505050506040513d601f19601f820116820180604052508101906105d19190611412565b6040516001600160e01b031960e085901b1681526001600160a01b03909216600483015260248201526044016020604051808303816000875af115801561061c573d6000803e3d6000fd5b505050506040513d601f19601f82011682018060405250810190610640919061142b565b6106815760405162461bcd60e51b81526020600482015260126024820152712ab730b13632903a37903a3930b739b332b960711b6044820152606401610261565b50565b60008281526005602052604090205482906001600160a01b031633146106bc5760405162461bcd60e51b8152600401610261906113ca565b60008181526005602052604080822080546001600160a01b03191690555182917f7cc135e0cebb02c3480ae5d74d377283180a2601f8f644edf7987b009316c63a91a2827f2e48c207bbe18ca424eae69ca096badb69cc821f8cb72b42f49599f3390a3b1c8360405161073191815260200190565b60405180910390a2600a82905561074661094f565b505050565b6107536108fa565b61068181610a3b565b600080610773600c54306393232d9f60e01b610894565b90506000610786600954620f4240610ae5565b90506000610799600954620f4240610af1565b905060006107a683610afd565b6107af83610afd565b6040516020016107c0929190611471565b60408051601f19818403018152828201909152600382526219d95d60ea1b602083015291506107f1908590836108b9565b61084f604051806040016040528060048152602001630e0c2e8d60e31b815250604051806040016040528060158152602001741c995cdc1bdb9cd94b18dc9e5c1d1bd05b5bdd5b9d605a1b815250866108b99092919063ffffffff16565b60408051808201909152600581526474696d657360d81b602082015261087f908590670de0b6b3a7640000610b90565b61088b84600d546108d7565b94505050505090565b61089c611324565b6108a4611324565b6108b081868686610bae565b95945050505050565b60808301516108c89083610bf4565b60808301516107469082610bf4565b6003546000906108f1906001600160a01b03168484610c0b565b90505b92915050565b6006546001600160a01b0316331461094d5760405162461bcd60e51b815260206004820152601660248201527527b7363c9031b0b63630b1363290313c9037bbb732b960511b6044820152606401610261565b565b60006109636002546001600160a01b031690565b600f546040516370a0823160e01b81526001600160a01b03610100909204821660048201529192506000916109e7918416906370a0823190602401602060405180830381865afa1580156109bb573d6000803e3d6000fd5b505050506040513d601f19601f820116820180604052508101906109df9190611412565b601054610c9e565b9050600a548103610a2c57600954436000908152600e6020526040812091909155600f805460ff191660011790556010805491610a23836115c7565b91905055505050565b600f805460ff191690555b5050565b336001600160a01b03821603610a935760405162461bcd60e51b815260206004820152601760248201527f43616e6e6f74207472616e7366657220746f2073656c660000000000000000006044820152606401610261565b600780546001600160a01b0319166001600160a01b03838116918217909255600654604051919216907fed8889f560326eb138920d842192f0eb3dd22b4f139c87a2c57538e05bae127890600090a350565b60006108f182846115f6565b60006108f1828461160a565b60606000610b0a83610caa565b600101905060008167ffffffffffffffff811115610b2a57610b2a61161e565b6040519080825280601f01601f191660200182016040528015610b54576020820181803683370190505b5090508181016020015b600019016f181899199a1a9b1b9c1cb0b131b232b360811b600a86061a8153600a8504945084610b5e57509392505050565b6080830151610b9f9083610bf4565b60808301516107469082610d82565b610bb6611324565b610bc68560800151610100610da8565b50508284526001600160a01b03821660208501526001600160e01b031981166040850152835b949350505050565b610c018260038351610e0d565b6107468282610f1c565b600454600090610c1c816001611634565b600455835160408086015160808701515191516000936320214ca360e11b93610c549386938493923092918a91600191602401611673565b60408051601f198184030181529190526020810180516001600160e01b03166001600160e01b0319909316929092179091529050610c9486838684610f43565b9695505050505050565b60006108f18284611634565b60008072184f03e93ff9f4daa797ed6e38ed64bf6a1f0160401b8310610ce95772184f03e93ff9f4daa797ed6e38ed64bf6a1f0160401b830492506040015b6d04ee2d6d415b85acef81000000008310610d15576d04ee2d6d415b85acef8100000000830492506020015b662386f26fc100008310610d3357662386f26fc10000830492506010015b6305f5e1008310610d4b576305f5e100830492506008015b6127108310610d5f57612710830492506004015b60648310610d71576064830492506002015b600a83106108f45760010192915050565b67ffffffffffffffff811115610d9c57610a3782826110a1565b610a3782600083610e0d565b604080518082019091526060815260006020820152610dc860208361160a565b15610df057610dd860208361160a565b610de39060206116db565b610ded9083611634565b91505b506020828101829052604080518085526000815290920101905290565b60178167ffffffffffffffff1611610e32576102f48360e0600585901b1683176110d8565b60ff8167ffffffffffffffff1611610e7057610e59836018611fe0600586901b16176110d8565b506102f48367ffffffffffffffff831660016110fd565b61ffff8167ffffffffffffffff1611610eaf57610e98836019611fe0600586901b16176110d8565b506102f48367ffffffffffffffff831660026110fd565b63ffffffff8167ffffffffffffffff1611610ef057610ed983601a611fe0600586901b16176110d8565b506102f48367ffffffffffffffff831660046110fd565b610f0583601b611fe0600586901b16176110d8565b506102f48367ffffffffffffffff831660086110fd565b6040805180820190915260608152600060208201526108f183846000015151848551611123565b6040516bffffffffffffffffffffffff193060601b1660208201526034810184905260009060540160408051808303601f1901815282825280516020918201206000818152600590925291812080546001600160a01b0319166001600160a01b038a1617905590925082917fb5e6e01e79f91267dc17b4e6314d5d4d03593d2ceee0fbb452b750bd70ea5af99190a2600254604051630200057560e51b81526001600160a01b0390911690634000aea090611006908890879087906004016116ee565b6020604051808303816000875af1158015611025573d6000803e3d6000fd5b505050506040513d601f19601f82011682018060405250810190611049919061142b565b610bec5760405162461bcd60e51b815260206004820152602360248201527f756e61626c6520746f207472616e73666572416e6443616c6c20746f206f7261604482015262636c6560e81b6064820152608401610261565b6110ac8260c26110d8565b50610a3782826040516020016110c491815260200190565b60405160208183030381529060405261120d565b6040805180820190915260608152600060208201526108f1838460000151518461121a565b604080518082019091526060815260006020820152610bec848560000151518585611275565b604080518082019091526060815260006020820152825182111561114657600080fd5b60208501516111558386611634565b11156111885761118885611178876020015187866111739190611634565b6112f6565b611183906002611715565b61130d565b6000808651805187602083010193508088870111156111a75787860182525b505050602084015b602084106111e757805182526111c6602083611634565b91506111d3602082611634565b90506111e06020856116db565b93506111af565b51815160001960208690036101000a019081169019919091161790525083949350505050565b610c018260028351610e0d565b6040805180820190915260608152600060208201528360200151831061124f5761124f84856020015160026111839190611715565b835180516020858301018481535080850361126b576001810182525b5093949350505050565b60408051808201909152606081526000602082015260208501516112998584611634565b11156112ad576112ad856111788685611634565b600060016112bd84610100611810565b6112c791906116db565b90508551838682010185831982511617815250805184870111156112eb5783860181525b509495945050505050565b6000818311156113075750816108f4565b50919050565b81516113198383610da8565b506102f48382610f1c565b6040805160a0810182526000808252602080830182905282840182905260608084018390528451808601909552845283015290608082015290565b6000806040838503121561137257600080fd5b50508035926020909101359150565b60006020828403121561139357600080fd5b5035919050565b6000602082840312156113ac57600080fd5b81356001600160a01b03811681146113c357600080fd5b9392505050565b60208082526028908201527f536f75726365206d75737420626520746865206f7261636c65206f6620746865604082015267081c995c5d595cdd60c21b606082015260800190565b60006020828403121561142457600080fd5b5051919050565b60006020828403121561143d57600080fd5b815180151581146113c357600080fd5b60005b83811015611468578181015183820152602001611450565b50506000910152565b7f68747470733a2f2f6170692e7472616e73616b2e636f6d2f6170692f76322f6381527f757272656e636965732f70726963653f706172746e65724170694b65793d383060208201527f3235306332622d333136612d343136382d383332382d3536323939646162666560408201527f3030266669617443757272656e63793d5553442663727970746f43757272656e60608201527f63793d4c494e4b2669734275794f7253656c6c3d425559266e6574776f726b3d60808201527f657468657265756d267061796d656e744d6574686f643d6372656469745f646560a0820152736269745f636172642666696174416d6f756e743d60601b60c0820152600083516115848160d485016020880161144d565b601760f91b60d49184019182015283516115a58160d584016020880161144d565b0160d501949350505050565b634e487b7160e01b600052601160045260246000fd5b6000600182016115d9576115d96115b1565b5060010190565b634e487b7160e01b600052601260045260246000fd5b600082611605576116056115e0565b500490565b600082611619576116196115e0565b500690565b634e487b7160e01b600052604160045260246000fd5b808201808211156108f4576108f46115b1565b6000815180845261165f81602086016020860161144d565b601f01601f19169290920160200192915050565b6001600160a01b0389811682526020820189905260408201889052861660608201526001600160e01b03198516608082015260a0810184905260c0810183905261010060e082018190526000906116cc83820185611647565b9b9a5050505050505050505050565b818103818111156108f4576108f46115b1565b60018060a01b03841681528260208201526060604082015260006108b06060830184611647565b80820281158282048414176108f4576108f46115b1565b600181815b8085111561176757816000190482111561174d5761174d6115b1565b8085161561175a57918102915b93841c9390800290611731565b509250929050565b60008261177e575060016108f4565b8161178b575060006108f4565b81600181146117a157600281146117ab576117c7565b60019150506108f4565b60ff8411156117bc576117bc6115b1565b50506001821b6108f4565b5060208310610133831016604e8410600b84101617156117ea575081810a6108f4565b6117f4838361172c565b8060001904821115611808576118086115b1565b029392505050565b60006108f1838361176f56fe68747470733a2f2f746573746170692e696f2f6170692f48617964656e32372f76312f6163636f756e74732f7075622d393938383737363635353434333332322f6e6574776f726b5265706f7274726f772c6d657472696356616c7565732c455354494d415445445f4541524e494e47532c6d6963726f7356616c7565a2646970667358221220e41f89ebe32dea65a600796daee654f58080ee8e00096887ace6ba62de2870d564736f6c63430008110033",
  "linkReferences": {},
  "deployedLinkReferences": {}
}